:020000040800F2
:1000000068160020DD010008C11400085F13000815
:10001000BD1400086D02000815180008000000005B
:100020000000000000000000000000004501000882
:10003000710200080000000089010008ED140008AA
:10004000F7010008F7010008F7010008F7010008B0
:10005000F7010008F7010008F7010008F7010008A0
:10006000F7010008F7010008F7010008F701000890
:10007000F7010008F7010008F7010008F701000880
:10008000F7010008F7010008F7010008F701000870
:10009000F7010008F7010008F7010008F701000860
:1000A000F7010008F7010008F7010008F701000850
:1000B000F7010008F7010008F7010008F701000840
:1000C000F7010008F7010008F7010008F701000830
:1000D000F7010008F7010008F7010008F701000820
:1000E000F7010008F7010008F7010008F701000810
:1000F000F7010008F7010008F7010008F701000800
:10010000F7010008F7010008F7010008F7010008EF
:10011000F7010008F7010008F7010008651500085D
:10012000F7010008F7010008F7010008F7010008CF
:10013000DFF80CD000F088F80048004705190008E7
:1001400068160020224B19680868B0E8F00F80F3A9
:100150000988BFF36F8F4FF0000080F311884EF0D5
:100160000D0E70470000000006480068006880F32C
:10017000088862B661B6BFF34F8FBFF36F8F00DFA1
:1001800000BF00BF08ED00E0EFF30980BFF36F8F01
:100190000F4B1A6820E9F00F106008B54FF0BF0050
:1001A00080F31188BFF34F8FBFF36F8F02F034FBE2
:1001B0004FF0000080F31188BDE808401968086816
:1001C000B0E8F00F80F30988BFF36F8F704700BF6E
:1001D00010000020EFF305807047000006488047BC
:1001E00006480047FEE7FEE7FEE7FEE7FEE7FEE71C
:1001F000FEE7FEE7FEE7FEE76315000831010008B1
:1002000040EA01039B0703D009E008C9121F08C098
:10021000042AFAD203E011F8013B00F8013B521E18
:10022000F9D27047D2B201E000F8012B491EFBD28F
:1002300070470022F6E710B513460A4604461946F1
:10024000FFF7F0FF204610BD064C074D06E0E068C2
:1002500040F0010394E8070098471034AC42F6D30D
:10026000FFF76AFF543000087430000800BFFEE753
:10027000704772B600BFFEE770B5044600F0C8F9DB
:1002800006462546681C10B104480078054400BFA6
:1002900000F0BEF9801BA842FAD370BD0800002010
:1002A0002DE9F847024600239C467BE14FF0010808
:1002B00008FA03F4D1F8008008EA0400A0427DD1D6
:1002C000DFF8F4A2D1F80480A8EB0A09D0453AD0AF
:1002D00014DCB8F1030F50D009DCB8F1000F31D0B5
:1002E000B8F1010F1CD0B8F1020F49D120E0B8F1EC
:1002F000110F18D0B8F1120F42D11EE0B9F5881FC6
:1003000025D006DCB9F5803F20D0B9F5801F37D164
:100310001AE0B9F5001F18D0B9F5041F30D117E065
:10032000D1F80CC02DE0D1F80C8008F1040C28E0C5
:10033000D1F80C8008F1080C23E0D1F80C8008F10A
:100340000C0C1EE000BF00BF00BF00BF00BF00BF1D
:10035000D1F80880B8F1000F02D14FF0040C0BE087
:10036000D1F80880B8F1010F03D14FF0080C1461E7
:1003700002E04FF0080C546103E04FF0000C00E085
:1003800000BF00BFFF2801D8904601E002F1040839
:100390004646FF2802D84FEA830803E0A3F1080885
:1003A0004FEA88084746D6F800804FF00F0909FA4F
:1003B00007F928EA09080CFA07F900E07AE048EAA8
:1003C0000908C6F80080D1F8048008F08058B8F118
:1003D000805F6FD100BFDFF8E481D8F8188048F063
:1003E0000108DFF8D891C9F81880C846D8F81880F5
:1003F00008F00108CDF8008000BF00BF4FEAB9380F
:100400004FEA930958F829504FEA83784FEA187950
:100410004FF00F0808FA09F825EA0805DFF8A0816F
:10042000424502D14FF0000824E0DFF898814245B0
:1004300002D14FF001081DE0DFF88C81424502D166
:100440004FF0020816E0DFF88481424502D14FF0F8
:1004500003080FE0DFF87881424502D14FF004082D
:1004600008E0DFF87081424502D14FF0050801E055
:100470004FF006084FEA83794FEA197908FA09F82C
:1004800048EA0505DFF850814FEA930948F82950FA
:10049000D1F8048008F48018B8F5801F0BD1DFF87C
:1004A0003C81D8F8008048EA0008DFF83091C9F8AC
:1004B00000800AE075E0DFF82481D8F8008028EA9F
:1004C0000008DFF81891C9F80080D1F8048008F41A
:1004D0000018B8F5001F0ED1DFF8008108F10408FC
:1004E000D8F8008048EA0008DFF8F09009F1040924
:1004F000C9F800800DE0DFF8E48008F10408D8F8BE
:10050000008028EA0008DFF8D49009F10409C9F84E
:100510000080D1F8048008F40038B8F5003F0ED10F
:10052000DFF8B880A8F10408D8F8008048EA00088D
:10053000DFF8A890A9F10409C9F800800DE0DFF800
:100540009C80A8F10408D8F8008028EA0008DFF8A9
:100550008C90A9F10409C9F80080D1F8048008F44E
:100560008038B8F5803F0ED1DFF87080A8F1080818
:10057000D8F8008048EA0008DFF86090A9F108097F
:10058000C9F800800DE0DFF85480A8F10808D8F819
:10059000008028EA0008DFF84490A9F10809C9F8AA
:1005A00000805B1CD1F8008028FA03F8B8F1000F36
:1005B0007FF47CAEBDE8F887000011100010024007
:1005C00000080140000C01400010014000140140EF
:1005D00000180140001C01400800014008040140CF
:1005E000024693680B400BB1012000E000207047E9
:1005F00010B5C26821EA020302EA010443EA044397
:10060000036110BD0AB1016101E00B040361704791
:10061000014800687047000000000020034800689F
:100620000349097808440149086070470000002028
:100630000800002010B50848006840F01000064986
:100640000860032000F0DCF8012000F007F800F05B
:100650005FF8002010BD0000002002402DE9F041AD
:1006600088B004460027B846002600BF2348C0696A
:1006700040F020002149C8610846C06900F0200010
:10068000019000BF00BF02A903A800F093F9069FE4
:100690001FB900F0B7F9054602E000F0B3F94500D4
:1006A0001748B5FBF0F0A0F101081648164908609C
:1006B00040F2E7311448C160C0F8048000210161B4
:1006C0008160816100F02AFC064696B90E4800F070
:1006D00059FC06466EB9372000F044F8102C07D2BA
:1006E00000222146372000F04DF80848046000E061
:1006F0000126304608B0BDE8F0810000001002403D
:1007000040420F0000140040780700200400002041
:1007100008B500BF1148806940F001000F498861A9
:100720000846806900F00100009000BF00BF00BFD4
:100730000846C06940F08050C8610846C06900F0B2
:100740008050009000BF00BF00BF0549486820F0FE
:10075000E06040F00070486000BF08BD001002403B
:100760000000014001460846002809DB00F01F0395
:1007700001229A4043099B0003F1E023C3F80021C2
:1007800000BF70472DE9F05F80460D4616460027F2
:1007900001F04AF8074639462A46334601F0070079
:1007A000C0F1070ABAF1040F02D94FF0040A01E0C0
:1007B000C0F1070AD14600F1040ABAF1070F02D2CC
:1007C0004FF0000A01E0A0F1030AD4464FF0010AFD
:1007D0000AFA09FAAAF1010A0AEA020A0AFA0CFA62
:1007E0004FF0010B0BFA0CFBABF1010B0BEA030B07
:1007F0004AEA0B042146404601F01EF8BDE8F09F8E
:1008000000BF00F00702064B19684FF6FF031940BE
:10081000044B0B4343EA0221014B196000BF7047B0
:100820000CED00E00000FA0570B504460D460CB969
:10083000012070BD5A48006800F00700A8420ED29F
:100840005748006820F007002843554908600846CB
:10085000006800F00700A84201D00120E9E72078F5
:1008600000F0020002281DD1207800F004000428C6
:1008700005D14C48406840F4E0604A49486020781F
:1008800000F00800082805D14648406840F4605050
:10089000444948604348406820F0F000A16808439C
:1008A00040494860207800F0010078B36068012872
:1008B00006D13C48006800F4003090B90120B8E748
:1008C0006068022806D13748006800F0007040B91F
:1008D0000120AEE73348006800F0020008B90120AB
:1008E000A7E73048406820F00300616808432D49BD
:1008F0004860FFF78DFE064609E0FFF789FE801B82
:1009000041F28831884202D9032092E707E0254866
:10091000406800F00C006168B0EB810FEDD1204819
:10092000006800F00700A8420ED91D48006820F0BA
:10093000070028431A4908600846006800F00700CD
:10094000A84201D0012074E7207800F004000428B8
:1009500007D11448406820F4E060E1680843114979
:100960004860207800F00800082808D10D48406849
:1009700020F46050216940EAC1000A49486000F053
:1009800061F808494968C1F30311074A515CC8403E
:100990000649086006480068FFF760FE002048E747
:1009A00000200240001002403A3000080C000020F5
:1009B000040000200F2202600D4A526802F0030278
:1009C00042600B4A526802F0F0028260084A5268A4
:1009D00002F4E062C260064A526802F46052D20831
:1009E0000261044A126802F007020A6070470000C0
:1009F00000100240002002400148006870470000DB
:100A00000C00002000B5FFF7F7FF04494968C1F367
:100A10000221034A515CC84000BD000000100240A2
:100A20004A30000800B5FFF7E7FF04494968C1F301
:100A3000C221034A515CC84000BD000000100240C2
:100A40004A30000870B50021002200240023002055
:100A5000134D696801F00C05F5B1042D02D0082D85
:100A600019D101E00F4819E00F4DC1F38346AB5D8A
:100A700001F4803555B10A4D6D68C5F340450B4E04
:100A8000725D084D5D43B5FBF2F402E0084D03FBD7
:100A900005F4204602E000BF024800BF00BF70BD61
:100AA0000010024000127A00283000083830000898
:100AB00000093D00F8B504460CB90120F8BD2078C6
:100AC00000F00100002878D0F848406800F00C00E1
:100AD00004280CD0F548406800F00C00082811D11B
:100AE000F248406800F48030B0F5803F0AD1EF480A
:100AF000006800F4003000285FD0606800285CD1F6
:100B00000120DBE700BF6068B0F5803F06D1E74811
:100B1000006840F48030E549086028E0606858B912
:100B2000E248006820F48030E04908600846006828
:100B300020F4802008601AE06068B0F5A02F0BD187
:100B4000DA48006840F48020D84908600846006808
:100B500040F4803008600AE0D448006820F4803017
:100B6000D24908600846006820F48020086000BF71
:100B7000606888B1FFF74CFD054606E0FFF748FDC9
:100B8000401B642801D9032098E7C848006800F496
:100B900000300028F2D010E0FFF73AFD054606E0ED
:100BA000FFF736FD401B642801D9032086E7BF48C4
:100BB000006800F400300028F2D1207800F0020034
:100BC000022857D1B948406800F00C0050B1B7482E
:100BD000406800F00C00082818D1B448406800F4C0
:100BE000803098B9B148006800F0020020B1206957
:100BF000012801D0012061E7AC48006820F0F8002E
:100C0000616940EAC100A949086033E02069E8B1A0
:100C10000120A7490860FFF7FBFC054606E0FFF747
:100C2000F7FC401B022801D9032047E79F480068D2
:100C300000F002000028F2D09C48006820F0F80084
:100C4000616940EAC1009949086013E000209849B1
:100C50000860FFF7DDFC054606E0FFF7D9FC401B06
:100C6000022801D9032029E79048006800F002001B
:100C70000028F2D1207800F0080008282DD1A069C2
:100C8000B8B101208B490860FFF7C2FC054606E0B9
:100C9000FFF7BEFC401B022801D903200EE7834862
:100CA000406A00F002000028F2D0012000F00AFCA7
:100CB00013E000207F490860FFF7AAFC054606E024
:100CC000FFF7A6FC401B022801D90320F6E677486F
:100CD000406A00F002000028F2D1207800F0040001
:100CE000042873D100277148C06900F0805070B9A2
:100CF00000BF6E48C06940F080506C49C86108462A
:100D0000C06900F08050009000BF00BF01276A4812
:100D1000006800F48070B0B96748006840F48070E3
:100D200065490860FFF774FC054606E0FFF770FCB4
:100D3000401B642801D90320C0E65F48006800F426
:100D400080700028F2D000BFE068012806D1574823
:100D5000006A40F001005549086227E0E06858B990
:100D60005248006A20F00100504908620846006AB3
:100D700020F00400086219E0E06805280BD14B4818
:100D8000006A40F00400494908620846006A40F0E1
:100D9000010008620AE04548006A20F0010043496A
:100DA00008620846006A20F00400086200BFE0689C
:100DB000A0B1FFF72DFC054609E0FFF729FC401B19
:100DC00041F28831884202D9032077E622E0374891
:100DD000006A00F002000028EFD012E0FFF718FCD4
:100DE000054608E0FFF714FC401B41F288318842B9
:100DF00001D9032062E62D48006A00F002000028B5
:100E0000F0D1012F05D12948C06920F08050274931
:100E1000C86100BFE069C8B32448406800F00C0016
:100E2000082860D0E069022848D1002020490866DF
:100E3000FFF7EEFB054606E0FFF7EAFB401B022842
:100E400001D903203AE61948006800F00070002834
:100E5000F2D1206AB0F5803F07D11448406820F4F1
:100E60000030A168084311494860D4E908010843EB
:100E70000E49496821F4741108430C494860012067
:100E80000B490866FFF7C4FB054607E03DE0FFF7A6
:100E9000BFFB401B022801D903200FE6034800686E
:100EA00000F000700028F2D02FE000000010024097
:100EB0000000424280044242007000400020144979
:100EC0000866FFF7A5FB054606E0FFF7A1FB401B00
:100ED000022801D90320F1E50E48006800F00070F7
:100EE0000028F2D111E0E069012800D1E6E50948C7
:100EF000466806F48031206A814204D106F47011FC
:100F0000606A814201D00120D8E50020D6E50000CA
:100F100000004242001002407047704710B504467E
:100F20000CB9012010BD94F83D0028B9002084F8C8
:100F30003C00204600F025F8022084F83D00211DE9
:100F4000206800F017FB012084F8460000BF84F8F9
:100F50003E0001213F20015540200155412001550F
:100F600000BF00BF012084F8420043200155442007
:100F700001554520015500BF012084F83D000020A7
:100F8000D0E77047014691F83D00012801D00120CB
:100F90007047022081F83D000868C06840F00100F9
:100FA0000B68D860164B0868984213D0154B086838
:100FB00098420FD00868B0F1804F0BD0124B0868F0
:100FC000984207D0114B0868984203D0104B08682C
:100FD00098420CD10868806800F00702062A0CD0FD
:100FE0000868006840F001000B68186005E00868B8
:100FF000006840F001000B6818600020C8E700009E
:10100000002C014000340140000400400008004072
:10101000000C0040704770B504462068C568206821
:10102000066906F00200022819D105F00200022824
:1010300015D1401F21680861012020772068806950
:1010400000F0030018B12046FFF7E4FF05E020465A
:1010500000F097F8204600F095F80020207706F081
:101060000400042819D105F00400042815D1C04358
:1010700021680861022020772068806900F44070B0
:1010800018B12046FFF7C6FF05E0204600F079F8CA
:10109000204600F077F80020207706F008000828A6
:1010A00019D105F00800082815D1C043216808614E
:1010B000042020772068C06900F0030018B12046A2
:1010C000FFF7A8FF05E0204600F05BF8204600F09F
:1010D00059F80020207706F01000102819D105F0EB
:1010E0001000102815D1C04321680861082020771E
:1010F0002068C06900F4407018B12046FFF78AFFED
:1011000005E0204600F03DF8204600F03BF80020C6
:10111000207706F0010048B105F0010030B16FF012
:10112000010021680861204600F02EF806F08000DA
:10113000802809D105F08000802805D1C0432168AE
:1011400008612046FFF7E8FE06F04000402809D17C
:1011500005F04000402805D1C043216808612046C1
:1011600000F01EF806F02000202809D105F020002C
:10117000202805D1C043216808612046FFF7CDFE35
:1011800070BD70477047000010B5044603492068E1
:10119000884201D1FFF742FA10BD00000014004060
:1011A000704710B504460CB9012010BDA06900B10C
:1011B00000E000BF94F8410028B9002084F8400006
:1011C000204600F029F8242084F841002068C068F7
:1011D00020F400502168C860204600F057FA2068CB
:1011E000006920F49040216808612068406920F07F
:1011F0002A00216848612068C06840F400502168D6
:10120000C86000206064202084F8410084F8420017
:101210000020606300BFC8E710B586B00446002018
:1012200002900390049005901A49206888422ED1BC
:1012300000BF1948806940F480401749886108461A
:10124000806900F48040019000BF00BF00BF0846E5
:10125000806940F0040088610846806900F004005D
:10126000019000BF00BF48150290022003900320A8
:10127000059002A90948FFF713F84FF48060029027
:1012800000200390049002A90448FFF709F806B073
:1012900010BD00000038014000100240000801406D
:1012A0002DE9F84F04460E46174699464FF0000ABE
:1012B00094F84100202850D106B117B90120BDE8AB
:1012C000F88F00206064212084F84100FFF7A0F926
:1012D0008246A784E784A068B0F5805F04D12069C6
:1012E00010B90025B04602E035464FF000081EE078
:1012F0005346002280212046CDF8009000F044FAA9
:1013000020B1202084F841000320D8E745B9B8F87F
:101310000000C0F308002168486008F1020803E0FB
:101320002878216848606D1CE08C401EE084E08CC9
:101330000028DDD15346002240212046CDF8009000
:1013400000F022FA20B1202084F841000320B6E703
:10135000202084F841000020B1E70220AFE700BF61
:10136000FEE7000010B54FF400511148FFF738F9BF
:1013700050B90A20FEF780FF4FF400510C48FFF7E8
:101380002FF990B9012010BD4FF480410848FFF7B4
:1013900027F950B90A20FEF76FFF4FF48041044847
:1013A000FFF71EF908B90220EDE70020EBE7000087
:1013B0000018014000B585B0002001900290039014
:1013C000049000BF2C48806940F010002A498861D1
:1013D0000846806900F01000009000BF00BF00BF09
:1013E0000846806940F0040088610846806900F082
:1013F0000400009000BF00BF00BF0846806940F0B5
:10140000080088610846806900F00800009000BF6D
:1014100000BF00BF0846806940F040008861084670
:10142000806900F04000009000BF00BF0122C02191
:101430001248FFF7E7F8C020019011200290002029
:1014400003900320049001A90C48FEF729FF012214
:101450004FF4C0410A48FFF7D5F84FF4C04001905F
:1014600000200290012003900320049001A9044869
:10147000FEF716FF05B000BD00100240000C014051
:101480000018014010B50B480B4908604FF4E130DB
:101490004860002108488160C16001610C21416100
:1014A00000218161C161FFF77CFE08B1FEF7E1FE1A
:1014B00010BD0000003801403007002000BFFEE7EB
:1014C00000BFFEE708B508490968C9084FF47A72F9
:1014D000B1FBF2F14143009100BF00BF00994A1EE9
:1014E00000920029F9D108BD0C00002010B501F0D0
:1014F0003DFB012801D001F0DDF910BD00B58FB032
:10150000282105A8FEF795FE14216846FEF791FEF6
:10151000012005900004069000200790012009900A
:1015200002200C90C1030D914FF4E0110E9105A81B
:10153000FFF7C0FA08B1FEF79CFE0F2000900220D2
:101540000190002002904FF48060039000200490EE
:1015500002216846FFF768F908B1FEF78AFE0FB06E
:1015600000BD704710B50248FFF755FD10BD0000E3
:101570007807002010B50268244B98420ED0244B07
:1015800098420BD0B0F1804F08D0224B984205D042
:10159000214B984202D0214B984203D122F0700295
:1015A0004B681A43194B98420ED0194B98420BD0F6
:1015B000B0F1804F08D0174B984205D0164B984297
:1015C00002D0164B984203D122F44072CB681A43E2
:1015D00022F080034C6943EA040202608B68C36214
:1015E0000B688362094B984202D0094B984201D1A3
:1015F0000B69036301234361036903F001031BB11A
:10160000036923F00103036110BD0000002C0140B9
:10161000003401400004004000080040000C00407D
:1016200000BF00BF02680C3252E8002F22F4907114
:1016300002680C3242E80013002BF3D100BF00BF58
:1016400000BF0268143252E8002F22F00101026844
:10165000143242E80013002BF3D100BF016B0129C3
:101660000ED100BF00BF02680C3252E8002F22F0FA
:10167000100102680C3242E80013002BF3D100BFC6
:10168000202180F8421000210163704770B50446A4
:101690002168096921F44051E2681143226811610F
:1016A0002269A1681143626941EA02052168C9689B
:1016B00041F20C62914329432268D1602168496953
:1016C00021F44071A2691143226851612D4A2168B9
:1016D000914202D1FFF7A6F901E0FFF793F900EB81
:1016E000C00101EB001162689200B1FBF2F100EB66
:1016F000C00202EB001263689B00B2FBF3F26423AA
:10170000B2FBF3F202EBC20303EB0212A1EB820184
:10171000322202EB01116422B1FBF2F101F0F0017F
:1017200000EBC00202EB001263689B00B2FBF3F215
:101730006423B2FBF3F201EB021200EBC00101EBF8
:10174000001163689B00B1FBF3F100EBC00303EBF6
:1017500000136668B600B3FBF6F36426B3FBF6F33A
:1017600003EBC30606EB0313A1EB8301322303EB68
:1017700001116423B1FBF3F101F00F011144226860
:10178000916070BD003801402DE9F84304460D46D4
:1017900017469846089E31E0701C70B3FEF738FF7C
:1017A000A0EB0800B04200D816B90320BDE8F883CA
:1017B0002068C06800F00400F8B1802D1ED0402DD4
:1017C0001CD020680068C0F3C000B0B100BF00208A
:1017D000009020680068009020684068009000BF7A
:1017E00000BF2046FFF71CFF0820606400BF0020F8
:1017F00084F8400000BF0120D8E7FFE720680068B8
:101800002840A84201D1012000E00020B842C3D006
:101810000020CBE700BFFEE7014A024900F02FB8E5
:10182000A11800089400002002480068C0F30220BC
:10183000704700000CED00E010B5002804DB0A073B
:10184000130E054A135406E00A07140E034A00F06B
:101850000F031B1FD45410BD00E400E018ED00E09E
:1018600002E008C8121F08C1002AFAD17047704769
:10187000002001E001C1121F002AFBD170472DE9B1
:10188000F04116460F460446002503E03946B047AE
:10189000641C6D1C20780028F8D12846BDE8F08132
:1018A00013B50C464FF0FF33012269460248FFF79B
:1018B000F7FC00981CBD0000300700200EB508485A
:1018C000084901220023CDE900210290802206A1CF
:1018D0000A4801F02BF90A49086000F069FF0EBDC3
:1018E000340B00203409002073746172745F7374C8
:1018F000617469635F7461736B00000069220008A2
:1019000084000020FEF796FE4FF47A70FEF7B4FCD8
:10191000FFF7F4FDFFF74EFDFFF7B4FD03A0FFF75F
:101920007BFFFFF7CBFF00BFFEE700004672656557
:1019300052544F532053746172740D0A000000001A
:101940002DE9F04705460E46294807682948D0F892
:1019500000802948D0F8009028480068001D00F059
:1019600071FD50B92548006890F82C10012088407E
:1019700023490968814322480160681CE0B9DEB14F
:1019800000BF204948681D49096888601B49826872
:101990000968CA6019490968091D826851601749B8
:1019A0000968091D8160174A144909684A6111468E
:1019B0000968491C116018E07C19104800684460EF
:1019C000BC4206D20D480168091D484600F076FD6C
:1019D0000BE00A480168091D404600F06FFD0A4807
:1019E0000068844201D208480460BDE8F087000026
:1019F0002400002014000020180000201000002007
:101A000028000020740800204000002010B5044683
:101A100000F07AFD32480068401C314908603148C6
:101A2000006840B92F4804600846006801280DD1BD
:101A300000F0CCF90AE02C48006838B92948006861
:101A4000C06AE16A884201D82648046027480068D5
:101A5000401C2649086000BF94F82C1001208840E3
:101A60002349096808432249086000BFE16A01EB85
:101A70008101204A02EB81014868A0608268E2602F
:101A8000211D826851608160E16A01EB8101194A80
:101A900002EB81026261E16A01EB8101154A52F8B1
:101AA0002110491CE26A02EB8202124B43F8221019
:101AB00000BF00BF00F03AFD0B48006878B100BFDE
:101AC00008480068C06AE16A884207D24FF0805037
:101AD00009490860BFF34F8FBFF36F8F00BF10BD80
:101AE00020000020100000202C0000203C000020DE
:101AF00028000020C007002004ED00E008B500F039
:101B000003FD0E480068A8B90D4800F0C7FC0D4859
:101B100000F0C4FC0A480C4908600A480B490860F8
:101B200000200B4B0B4A0C210090052000F0DCFE3E
:101B30000249086000F0FAFC08BD000058000020CF
:101B4000880800209C08002050000020540000203D
:101B5000B0080020F808002010B516E000F0D4FC12
:101B60000C48C068C468201D00F06CFC0A4800687E
:101B7000401E0949086009480068401E074908607E
:101B800000F0D4FC204600F095F8044800680028D6
:101B9000E4D110BD60080020200000201C000020BF
:101BA00070B504460D46206C70B1216CE0680144AC
:101BB000E160D4E90210884201D32168E16028463F
:101BC000226CE168FEF71CFB70BD0000F0B58BB025
:101BD000012600200790089009900A900027002411
:101BE00008E01DA0005D07A9085507A8005D00B921
:101BF00002E0641C0F2CF4D300BF002007A9085595
:101C0000002522E0164F00200690059004AA05A9A1
:101C100006A800F02BFC0022DDE905101346CDE9F3
:101C20000021029007A93846049A00F07FFF0D4971
:101C300041F82500084650F8250008B1012600E0CB
:101C40000026012E00D002E06D1C012DDADB00BF62
:101C500030460BB0F0BD000049444C450000000088
:101C6000051D0008440000202DE9FF4F85B0074600
:101C700088469146DDE9145BDDE912A6ADB1A6B157
:101C80002C464C212046FEF7D4FA2663022084F825
:101C900049000020CDE900ABCDE902404A4641466B
:101CA0003846089B00F055F800E00024204609B0B3
:101CB000BDE8F08F10B5044694F8490030B9206BA8
:101CC00000F044FC204600F041FC06E094F8490096
:101CD000012802D1204600F039FC10BD0146084A17
:101CE000126812680AB9012200E000220A600A683C
:101CF00022B9034A1268D268106800E000207047D9
:101D00005000002000BFFFF727FF064800680128A9
:101D1000F9D94FF0805004490860BFF34F8FBFF3EB
:101D20006F8FF0E7C007002004ED00E02DE9F041DF
:101D300006460D4617469846069C0DB9246000E0FD
:101D40002760E66325640121204600F0EDFDBDE833
:101D5000F0812DE9FF5F80460E469146DDE90E7A5F
:101D6000109CA9F10100216B01EB800B2BF0070BFC
:101D70007EB1002507E0715D04F134004155705DCE
:101D800000B902E06D1C102DF5D300BF00214320E7
:101D90000155052F00D30427E762201D00F08BFBBF
:101DA00004F1180000F087FB2461C7F10500A06171
:101DB000646241465846039A00F044FA2060BAF142
:101DC000000F01D0CAF80040BDE8FF9F10B5002405
:101DD00007E004EB84010F4A02EB810000F05EFB98
:101DE000641C052CF5D30C4800F058FB0B4800F0A0
:101DF00055FB0B4800F052FB0A4800F04FFB0A4825
:101E000000F04CFB04480949086004480849086090
:101E100010BD0000C0070020240800203808002062
:101E20004C080020600800207408002014000020E6
:101E30001800002010B50146164800E0006803684D
:101E40008B42FBD30246436813448B4204D1436860
:101E50004C682344436001460A464B6813440468B7
:101E6000A34211D10C4C03682468A34208D04B68EC
:101E70000468646823444B6003681B680B6005E0DA
:101E8000054B1B680B6001E003680B60884200D0C3
:101E9000016010BD640000206C0000202DE9F041BD
:101EA00004460D4616461F464FF000086560246143
:101EB000B5420CD8F01BA169884202D34FF001084B
:101EC00011E0211D0948006800F0F8FA0BE0BE425D
:101ED00004D2BD4202D34FF0010804E0211D0448A2
:101EE000006800F0EBFA4046BDE8F08154000020A5
:101EF0005000002070B5054600F006FBA86B08B93D
:101F0000012400E0002400F011FB204670BD000019
:101F100070B505460E460E480068C068C468201DAE
:101F200000F090FA94F8240000F0040028B1324642
:101F30002946204600F0CAF805E094F8240000F095
:101F4000FE0084F824002046216A884770BD000006
:101F5000500000207FB5002001900290039070E0B7
:101F6000019800286DDB039C002C6AD0606908B9D9
:101F7000012000E0002010B9201D00F063FA68463F
:101F800000F0D0F8054601980A2858D2DFE800F0A2
:101F90005705072E364706082F3700BF00BF00BF82
:101FA00094F8240040F0010084F824000298A2690B
:101FB000811803462A462046FFF770FFA8B194F81F
:101FC000240000F0040038B10298A26981182A4662
:101FD000204600F07BF805E094F8240000F0FE00B5
:101FE00084F824002046216A884729E000BF94F83D
:101FF000240000F0FE0084F8240021E000BF94F8E3
:10200000240040F0010084F824000298A061A06937
:1020100041192B462A462046FFF740FF10E094F86E
:10202000240000F0020018B9204600F08FFA05E005
:1020300094F8240000F0FE0084F8240000E000BFC3
:1020400000BF002201A90348006800F0BDFC002881
:1020500086D17FBD58000020F8B505460C4600F03B
:10206000D3FB684600F05EF80646009820BB44B9F2
:10207000B54206D800F0ECFE31462846FFF748FF8F
:102080001CE03CB10E480068006808B9012000E07F
:1020900000200446A91B22460A48006800F088FA7E
:1020A00000F0D6FE50B94FF0805007490860BFF3EA
:1020B0004F8FBFF36F8F01E000F0CAFEF8BD000044
:1020C000540000205800002004ED00E070B50446E4
:1020D0000D46164604E0A06905442046216A88475B
:1020E000A06941192B4632462046FFF7D7FE00284B
:1020F000F1D170BD09480068006808B9012000E00E
:10210000002020B14FF0FF300549086005E003488A
:102110000068C06800680249086070471400002029
:102120004000002070B5044600F030FD0546074829
:102130000068854204D200F00BF80120206001E025
:102140000020206001480560284670BD6000002026
:1021500070B508E00D480068C06804684FF0FF31B2
:102160002046FFF7D5FE09480068006808B901203D
:1021700000E000200028EDD004480568044800680D
:10218000024908600248056070BD00005000002050
:102190005400002000BFBF2080F31188BFF34F8F91
:1021A000BFF36F8F00BF00BFFEE708B500BF6846F2
:1021B000FFF794FD044620460099FFF74DFFFFF717
:1021C000C9FEF4E770B5044600F09EF994F9455055
:1021D00010E0606A08B9012000E0002038B904F17D
:1021E000240000F0A9FD18B100F0A4FA00E003E01B
:1021F000681E45B2002DECDC00BFFF2084F84500CE
:1022000000F094F900F080F994F9445010E020694E
:1022100008B9012000E0002048B904F1100000F0E6
:102220008BFD08B100F086FA681E45B200E001E0BF
:10223000002DECDC00BFFF2084F8440000F076F9AC
:1022400070BD0000001F4FF080730360001F21F07D
:1022500001030360001F034B036014380260203841
:1022600070470000952100083EB5044600F04CF987
:102270001748184902220023CDE90021029080224C
:1022800015A11A4800F052FC1949086019481A496A
:1022900003220023CDE900210290802217A11C48CF
:1022A00000F044FC1B4908601B481C490422002321
:1022B000CDE900210290802219A11E4800F036FCD1
:1022C0001D490860002000F0B3F900F02FF93EBD71
:1022D000800D0020800B002073746172745F737432
:1022E000617469635F7461736B3100003D230008A2
:1022F00088000020CC0F0020CC0D00207374617288
:10230000745F7374617469635F7461736B3200002E
:10231000752300088C0000201812002018100020DF
:1023200073746172745F7374617469635F746173F1
:102330006B330000AD230008900000200AE006A0E7
:10234000FFF76AFA40210A48FEF752F94FF4FA7093
:1023500000F054F9F3E700005468697320697320B2
:10236000737461746963207461736B310D0A0000CA
:10237000000C01400AE006A0FFF74EFA80210A484F
:10238000FEF736F94FF47A7000F038F9F3E7000001
:10239000546869732069732073746174696320746D
:1023A00061736B320D0A0000000C0140002428E02C
:1023B00014A0FFF731FAFEF7D5FF0446012C0DD12A
:1023C00016480068C8B116A0FFF726FA134800683F
:1023D00000F02EF90020114908600EE0022C0CD10B
:1023E0001348006848B113A0FFF716FA10480068B8
:1023F00000F01EF900200E4908604FF4FA7000F05A
:10240000FDF8D5E7546869732069732073746174AB
:102410006963207461736B330D0A0000880000202B
:102420004B45593120507265737365640D0A000085
:102430008C0000204B4559322050726573736564DF
:102440000D0A000001460A69D1E901309860D1E91E
:10245000010358605068884201D1886850600020AC
:1024600008611068401E106010687047034B0360DD
:10247000034B0B608023136070470000980200201C
:1024800098000020034B0360034B0B604FF48073F4
:1024900013607047E4060020E402002000F1080108
:1024A00041604FF0FF31816000F10801C1600161BE
:1024B00000210160704700210161704710B502469C
:1024C0000B685C1C0CB9106907E002F1080000E021
:1024D0004068446824689C42FAD944684C604C685F
:1024E000A160886041600A611468641C146010BDBA
:1024F00042684A6093688B60936859609160086194
:1025000003685B1C0360704700BFBF2080F3118825
:10251000BFF34F8FBFF36F8F00BF03480068401CAD
:1025200001490860704700008000002006480068EC
:10253000401E054908600846006820B9002080F365
:10254000118800BF00BF70478000002070B50646AC
:102550003546E6B1083D2C466068C00FB8B120682A
:10256000A8B9606820F00040606000F04DF90849AB
:10257000606809680844064908602046FFF75AFC6D
:1025800004480068401C0349086000F061FC70BD0D
:10259000700000207C00002000204FF0E021086146
:1025A0008861024848610720086170473F190100AF
:1025B0002DE9F04105460E4617462C46FFF7A4FFCD
:1025C00094F94400401C10B9002084F8440094F9A8
:1025D0004500401C10B9002084F84500FFF7A6FF15
:1025E000A06B28B93A46314604F1240000F0B8F84F
:1025F0002046FFF7E7FDBDE8F081000070B5044616
:10260000002544B100F000F900212046FFF798F9B9
:1026100000F01EFC05463DB94FF0805003490860AC
:10262000BFF34F8FBFF36F8F70BD000004ED00E06C
:102630002DE9F04105460026FFF766FF15B92E4843
:10264000006800E028460446201DFFF7FBFE88B91D
:1026500000BFE06A00EB8000284951F8200040B933
:1026600094F82C10012088402549096881432448AA
:10267000016000BFA06A18B104F11800FFF7E2FE84
:1026800020480068401C1F4908601B4800688442BD
:1026900001D1012000E0002007461B48006858B126
:1026A00057B1211D1948FFF723FF19480068401C46
:1026B00017490860012606E016480068401E1549C3
:1026C0000860FFF717FDFFF731FF012E02D020460B
:1026D000FFF7F0FA0C48006858B1074800688442D8
:1026E00007D14FF080500C490860BFF34F8FBFF304
:1026F0006F8FBDE8F081000010000020C0070020AF
:10270000280000203C0000202C0000206008002051
:102710001C0000202000002004ED00E003490968AF
:1027200001600349096841607047000038000020DB
:102730002400002001200149086070473400002077
:1027400070B505460C460548016818312846FFF764
:10275000B5FE01212046FFF7F3F870BD1000002000
:1027600070B504460E46154600BF60680F490968FB
:10277000C8610E49826809680A620C490968183103
:102780008268516009490968183181600749096800
:102790008C622168491C216000BF0DB14FF0FF36EB
:1027A00029463046FFF7CCF870BD0000100000202D
:1027B00010B5FFF70BFA0446012C02D100F004FC1F
:1027C0000446012C14D100BFBF2080F31188BFF351
:1027D0004F8FBFF36F8F00BF4FF0FF300649086087
:1027E00001200649086000200549086000F048F80B
:1027F0000448006810BD0000400000202C000020AC
:10280000240000204800002002480068401C0149C4
:10281000086070474C0000201448006818B101207F
:102820001349086021E000201149086000BF1148E9
:102830000068B0FA80F0C0F11F0100BF01EB810217
:102840000D4B03EB820042685268426000F10802BF
:102850004368934201D1C26842604268D268074B24
:102860001A6000BF00BF1846006870474C00002087
:102870003400002028000020C007002010000020A5
:1028800010B50A48006840F47F000849086008460F
:10289000006840F07F400860FFF77EFE002004499A
:1028A0000860FDF761FC002010BD000020ED00E095
:1028B0008000002010B500BFBF2080F31188BFF357
:1028C0004F8FBFF36F8F00BF00F066F918B14FF064
:1028D00080500449086000BF002080F3118800BFC9
:1028E00010BD000004ED00E02DE9F84380460D46E0
:1028F00016461C46DDF820900027B8F1000F0FD0D7
:1029000074B106B165B106B955B92746012087F8FB
:1029100046004B463246294640460097FFF706FAE6
:102920003846BDE8F88300002DE9F04105460E4623
:1029300001272C46002C41D0E06B00283ED0B91E68
:10294000E06BB1FBF0F0216C884237D3FFF7DCFD80
:10295000D4E90F12206801FB0200A0600020A063F0
:1029600020686060E06B401E226C216800FB021151
:10297000E160FF2084F8440084F845009EB9206996
:1029800008B9012000E00020A8B904F1100000F00F
:10299000D3F980B14FF080500A490860BFF34F8FE0
:1029A000BFF36F8F07E004F11000FFF777FD04F12C
:1029B0002400FFF773FDFFF7B9FD00E0002738465C
:1029C000BDE8F08104ED00E02DE9F74183B0054654
:1029D0000F464FF000082C4600BFFFF795FDA66B91
:1029E000F6B139462046FFF7DBF8701EA063206978
:1029F00008B9012000E0002060B904F1100000F0E7
:102A00009BF938B14FF080502F490860BFF34F8FCA
:102A1000BFF36F8FFFF78AFD012006B0BDE8F0819C
:102A2000059818B9FFF782FD0020F6E7B8F1000F0E
:102A300004D101A8FFF772FE4FF00108FFF776FD01
:102A4000FFF7E2FEFFF760FD94F94400401C10B967
:102A5000002084F8440094F94500401C10B900207F
:102A600084F84500FFF762FD05A901A800F02EF8E3
:102A7000F0B92046FFF73EFAA0B104F12400059911
:102A8000FFF75EFE2046FFF79DFB00F0E1F900280E
:102A9000A3D14FF080500C490860BFF34F8FBFF3B4
:102AA0006F8F9AE72046FFF78DFB00F0D1F994E78E
:102AB0002046FFF787FB00F0CBF92046FFF71AFA14
:102AC00000288AD00020A8E704ED00E070B5064693
:102AD0000C46FFF719FD134802687068131A206846
:102AE000401C08B9002519E00F4930680968884280
:102AF00006D07068904203D80125002020600DE0C8
:102B00002068984207D92068C01A20603046FFF735
:102B100005FE002502E0002020600125FFF706FDEC
:102B2000284670BD24000020380000202DE9F04F19
:102B300085B005460E4617469846DDE90FABDDF831
:102B400038900020049004A843463A4631468DE868
:102B5000000E03902846FFF787F8044614B120467C
:102B6000FEF754FF049805B0BDE8F08F05490968E9
:102B700009B9012005E00449096809B9022000E00B
:102B8000002070472C0000204C00002001490868FC
:102B900070470000240000202DE9F04100275B4829
:102BA000006800287DD15A480068451C58480560D7
:102BB00095B900BF5748D0F800805748006855497C
:102BC00008605548C0F8008054480068401C5349CC
:102BD0000860FFF78FFA00BF5148006885427DD337
:102BE00000BF4C480068006808B9012000E00020E0
:102BF00020B14FF0FF304A4908606EE04548006858
:102C0000C068C4686668B54202D24548066064E0A0
:102C100000BF6069D4E902128A60D4E902214A60E7
:102C2000211D42688A4201D1E1684160002262614F
:102C30000168491E016000BFA06AA0B100BFA06A80
:102C4000D4E907128A60D4E907214A6004F1180127
:102C500042688A4201D1216A41600022A262016871
:102C6000491E016000BF00BF94F82C10012088406D
:102C70002C49096808432B49086000BFE16A01EB51
:102C80008101294A02EB81014868A0608268E26004
:102C9000211D826851608160E16A01EB8101224A55
:102CA00000E02BE002EB81026261E16A01EB81014D
:102CB0001D4A52F82110491CE26A02EB82021A4BAB
:102CC00043F8221000BF00BF1849E06A0968C96ACA
:102CD000884286D9012784E700E000BF13480068D6
:102CE000C06A00EB8000104951F82000012800D98B
:102CF00001270F48006800B1012704E00D48006873
:102D0000401C0C4908603846BDE8F0814C000020AA
:102D100024000020140000201800002038000020AB
:102D20004000002028000020C007002010000020E4
:102D3000340000203000002070B50346D868C16818
:102D400000BF886AD1E90745A560D1E907546560ED
:102D500001F118044568A54201D10C6A44600025C0
:102D60008D620468641E046000BF33480068002858
:102D700042D100BF4869D1E90245A560D1E90254BA
:102D800065600C1D4568A54201D1CC6844600025F2
:102D90004D610468641E046000BF00BF91F82C40C0
:102DA0000120A040254C24682043244C206000BF13
:102DB000CC6A04EB8404224D05EB840460688860CF
:102DC0008568CD600C1D85686C608460CC6A04EBFE
:102DD00084041B4D05EB84054D61CC6A04EB84042F
:102DE000174D55F82440641CCD6A05EB8505144E3B
:102DF00046F8254000BF11E000BF124C6068C86172
:102E000085680D6201F1180485686C6084600D4D61
:102E10008D622C462468641C2C6000BF0A4CC86A72
:102E20002468E46AA04204D901220120074C2060F2
:102E300000E00022104670BD4C0000202800002059
:102E4000C00700204C0800201000002034000020A3
:102E50002DE9F04100240026FFF756FB00275148DA
:102E60000068401E4F4908600846006800287DD170
:102E70004D480068002879D063E04C48C068C468B9
:102E800000BFA06AD4E907128A60D4E907214A602A
:102E900004F1180142688A4201D1216A416000228E
:102EA000A2620168491E016000BF00BF6069D4E9E9
:102EB00002128A60D4E902214A60211D42688A42D6
:102EC00001D1E1684160002262610168491E016030
:102ED00000BF00BF94F82C100120884034490968D5
:102EE00008433349086000BFE16A01EB8101314AC0
:102EF00002EB81014868A0608268E260211D82685F
:102F000051608160E16A01EB81012A4A02EB810292
:102F10006261E16A01EB8101264A52F82110491CE5
:102F2000E26A02EB8202234B43F8221000BF00BF8B
:102F30002149E06A0968C96A884202D901201F490B
:102F400008601A48006808B9012000E00020002845
:102F500093D00CB1FFF7CEF81948056875B100BFE2
:102F6000FFF71AFE20B10120144900E015E00860C7
:102F70006D1E002DF4D10020114908600F48006833
:102F800058B1012600BF0C48006830070D490860A1
:102F9000BFF34F8FBFF36F8F00BFFFF7C7FA304605
:102FA000BDE8F0814C000020200000204C080020EB
:102FB00028000020C007002010000020340000205E
:102FC0003000002004ED00E010B586B00024FEF7CC
:102FD00095FD10480068D0B100200590049003AA28
:102FE00004A905A8FFF74EFA0422DDE90410002326
:102FF000CDE90021029008A10948039AFFF796FD48
:10300000084908600846006800B1012400BF204656
:1030100006B010BD58000020546D72205376630036
:10302000AB2100085C000020020304050607080924
:103030000A0B0C0D0E0F1010010200000000000022
:103040000000010203040607080900000000010255
:103050000304000074300008000000209800000005
:10306000601800080C31000898000020D0150000FE
:1030700070180008000000001000000001000000AF
:1030800000127A00000000000000000000000000B4
:103090000000000000000000000000000000000030
:1030A0000000000000000000000000000000000020
:1030B000000000000000000000000000040000000C
:1030C0000000000000000000000000000000000000
:1030D00000000000000000000000000000000000F0
:1030E00000000000000000000000000000000000E0
:1030F00000000000AAAAAAAA000000000000000028
:0C310000000000000000000000000000C3
:0400000508000131BD
:00000001FF
