:020000040800F2
:10000000704A0020DD0100086D1D0008DF1A00089D
:10001000691D000895020008F92200080000000090
:100020000000000000000000000000004501000882
:10003000990200080000000089010008991D0008CD
:10004000F7010008F7010008F7010008F7010008B0
:10005000F7010008F7010008F7010008F7010008A0
:10006000F7010008F7010008F7010008F701000890
:10007000F7010008F7010008F7010008F701000880
:10008000F7010008F7010008F7010008F701000870
:10009000F7010008F7010008F7010008F701000860
:1000A000F7010008F7010008F7010008F701000850
:1000B000111E0008211E0008F7010008F7010008C2
:1000C000F7010008F7010008F7010008F701000830
:1000D000F7010008E9220008F7010008F70100080D
:1000E000F7010008F7010008F7010008F701000810
:1000F000F7010008F7010008F7010008F701000800
:10010000F7010008F7010008F7010008F7010008EF
:10011000F7010008F7010008F7010008311E000888
:10012000F7010008F7010008F7010008F7010008CF
:10013000DFF80CD000F09CF800480047B527000815
:10014000704A0020224B19680868B0E8F00F80F36D
:100150000988BFF36F8F4FF0000080F311884EF0D5
:100160000D0E70470000000006480068006880F32C
:10017000088862B661B6BFF34F8FBFF36F8F00DFA1
:1001800000BF00BF08ED00E0EFF30980BFF36F8F01
:100190000F4B1A6820E9F00F106008B54FF0BF0050
:1001A00080F31188BFF34F8FBFF36F8F03F046FBCF
:1001B0004FF0000080F31188BDE808401968086816
:1001C000B0E8F00F80F30988BFF36F8F704700BF6E
:1001D00010000020EFF305807047000006488047BC
:1001E00006480047FEE7FEE7FEE7FEE7FEE7FEE71C
:1001F000FEE7FEE7FEE7FEE70F1E000831010008FC
:10020000D2B201E000F8012B491EFBD27047002258
:10021000F6E710B513460A4604461946FFF7F0FF05
:10022000204610BD421C10F8011B0029FBD1801A8A
:100230007047034611F8012B00F8012B002AF9D171
:100240001846704730B50B46014600202022012495
:1002500009E021FA02F59D4205D303FA02F5491B94
:1002600004FA02F52844151EA2F10102F1DC30BDAA
:10027000064C074D06E0E06840F0010394E80700F3
:1002800098471034AC42F6D3FFF756FFA83C00085D
:10029000C83C000800BFFEE7704772B600BFFEE72B
:1002A0001CB50648012100238022CDE9001004A1DD
:1002B000084803F02BFB03F025FA1CBD700000205A
:1002C00073746172745F7374617469635F74617372
:1002D0006B000000392F00080146002291F8210030
:1002E000022808D00420886300BF002081F8200085
:1002F00000BF012070470868006820F00E000B68FE
:1003000018600868006820F001000B68186091F818
:10031000403001209840CB6B5860012081F82100CB
:1003200000BF002081F8200000BF1046E2E7000077
:1003300070B50446002594F82100022803D004205B
:10034000A0630125C1E02068006820F00E0021684C
:1003500008602068006820F00100216808605C499E
:100360002068884252D95A4978392068884201D198
:10037000012047E0564964392068884201D11020A5
:1003800040E0534950392068884201D1801539E056
:100390004F493C392068884201D1801432E04C49F1
:1003A00028392068884202D14FF480302AE0484939
:1003B00014392068884202D14FF4801022E0444969
:1003C0002068884201D140041CE0424920688842EC
:1003D00001D1012016E03F4914312068884201D143
:1003E00010200FE03B4928312068884201D1801558
:1003F00008E038493C312068884201D1801401E08E
:100400004FF480303349091F086051E03049783992
:100410002068884201D1012047E02D4964392068D5
:10042000884201D1102040E0294950392068884293
:1004300001D1801539E026493C392068884201D134
:10044000801432E0224928392068884202D14FF4D2
:1004500080302AE01E4914392068884202D14FF4C6
:10046000801022E01A492068884201D140041CE033
:1004700018492068884201D1012016E0154914313D
:100480002068884201D110200FE0124928312068ED
:10049000884201D1801508E00E493C31206888422D
:1004A00001D1801401E04FF480300949803948605F
:1004B000012084F8210000BF002084F8200000BF44
:1004C000606B10B12046616B8847284670BD000004
:1004D000800002400804024070B5044600F0C8F9EC
:1004E00006462546681C10B104480078054400BF44
:1004F00000F0BEF9801BA842FAD370BD08000020AE
:100500002DE9F847024600239C467BE14FF00108A5
:1005100008FA03F4D1F8008008EA0400A0427DD173
:10052000DFF8F4A2D1F80480A8EB0A09D0453AD04C
:1005300014DCB8F1030F50D009DCB8F1000F31D052
:10054000B8F1010F1CD0B8F1020F49D120E0B8F189
:10055000110F18D0B8F1120F42D11EE0B9F5881F63
:1005600025D006DCB9F5803F20D0B9F5801F37D102
:100570001AE0B9F5001F18D0B9F5041F30D117E003
:10058000D1F80CC02DE0D1F80C8008F1040C28E063
:10059000D1F80C8008F1080C23E0D1F80C8008F1A8
:1005A0000C0C1EE000BF00BF00BF00BF00BF00BFBB
:1005B000D1F80880B8F1000F02D14FF0040C0BE025
:1005C000D1F80880B8F1010F03D14FF0080C146185
:1005D00002E04FF0080C546103E04FF0000C00E023
:1005E00000BF00BFFF2801D8904601E002F10408D7
:1005F0004646FF2802D84FEA830803E0A3F1080823
:100600004FEA88084746D6F800804FF00F0909FAEC
:1006100007F928EA09080CFA07F900E07AE048EA45
:100620000908C6F80080D1F8048008F08058B8F1B5
:10063000805F6FD100BFDFF8E481D8F8188048F000
:100640000108DFF8D891C9F81880C846D8F8188092
:1006500008F00108CDF8008000BF00BF4FEAB938AC
:100660004FEA930958F829504FEA83784FEA1879EE
:100670004FF00F0808FA09F825EA0805DFF8A0810D
:10068000424502D14FF0000824E0DFF8988142454E
:1006900002D14FF001081DE0DFF88C81424502D104
:1006A0004FF0020816E0DFF88481424502D14FF096
:1006B00003080FE0DFF87881424502D14FF00408CB
:1006C00008E0DFF87081424502D14FF0050801E0F3
:1006D0004FF006084FEA83794FEA197908FA09F8CA
:1006E00048EA0505DFF850814FEA930948F8295098
:1006F000D1F8048008F48018B8F5801F0BD1DFF81A
:100700003C81D8F8008048EA0008DFF83091C9F849
:1007100000800AE075E0DFF82481D8F8008028EA3C
:100720000008DFF81891C9F80080D1F8048008F4B7
:100730000018B8F5001F0ED1DFF8008108F1040899
:10074000D8F8008048EA0008DFF8F09009F10409C1
:10075000C9F800800DE0DFF8E48008F10408D8F85B
:10076000008028EA0008DFF8D49009F10409C9F8EC
:100770000080D1F8048008F40038B8F5003F0ED1AD
:10078000DFF8B880A8F10408D8F8008048EA00082B
:10079000DFF8A890A9F10409C9F800800DE0DFF89E
:1007A0009C80A8F10408D8F8008028EA0008DFF847
:1007B0008C90A9F10409C9F80080D1F8048008F4EC
:1007C0008038B8F5803F0ED1DFF87080A8F10808B6
:1007D000D8F8008048EA0008DFF86090A9F108091D
:1007E000C9F800800DE0DFF85480A8F10808D8F8B7
:1007F000008028EA0008DFF84490A9F10809C9F848
:1008000000805B1CD1F8008028FA03F8B8F1000FD3
:100810007FF47CAEBDE8F8870000111000100240A4
:1008200000080140000C014000100140001401408C
:1008300000180140001C014008000140080401406C
:10084000024693680B400BB1012000E00020704786
:1008500010B5C26821EA020302EA010443EA044334
:10086000036110BD0AB1016101E00B04036170472F
:10087000014800687047000000000020034800683D
:1008800003490978084401490860704700000020C6
:100890000800002010B50848006840F01000064924
:1008A0000860032000F0DCF8012000F007F800F0F9
:1008B0005FF8002010BD0000002002402DE9F0414B
:1008C00088B004460027B846002600BF2348C06908
:1008D00040F020002149C8610846C06900F02000AE
:1008E000019000BF00BF02A903A800F093F9069F82
:1008F0001FB900F0B7F9054602E000F0B3F9450072
:100900001748B5FBF0F0A0F1010816481649086039
:1009100040F2E7311448C160C0F804800021016151
:100920008160816100F078FC064696B90E4800F0BF
:10093000E3FC06466EB9372000F044F8102C07D2CD
:1009400000222146372000F04DF80848046000E0FE
:100950000126304608B0BDE8F081000000100240DA
:1009600040420F0000140040CC0000200400002092
:1009700008B500BF1148806940F001000F49886147
:100980000846806900F00100009000BF00BF00BF72
:100990000846C06940F08050C8610846C06900F050
:1009A0008050009000BF00BF00BF0549486820F09C
:1009B000E06040F00070486000BF08BD00100240D9
:1009C0000000014001460846002809DB00F01F0333
:1009D00001229A4043099B0003F1E023C3F8002160
:1009E00000BF70472DE9F05F80460D461646002790
:1009F00001F0ACFC074639462A46334601F00700B1
:100A0000C0F1070ABAF1040F02D94FF0040A01E05D
:100A1000C0F1070AD14600F1040ABAF1070F02D269
:100A20004FF0000A01E0A0F1030AD4464FF0010A9A
:100A30000AFA09FAAAF1010A0AEA020A0AFA0CFAFF
:100A40004FF0010B0BFA0CFBABF1010B0BEA030BA4
:100A50004AEA0B042146404601F080FCBDE8F09FC5
:100A600000BF00F00702064B19684FF6FF0319405C
:100A7000044B0B4343EA0221014B196000BF70474E
:100A80000CED00E00000FA0570B504460D460CB907
:100A9000012070BD5A48006800F00700A8420ED23D
:100AA0005748006820F00700284355490860084669
:100AB000006800F00700A84201D00120E9E7207893
:100AC00000F0020002281DD1207800F00400042864
:100AD00005D14C48406840F4E0604A4948602078BD
:100AE00000F00800082805D14648406840F46050EE
:100AF000444948604348406820F0F000A16808433A
:100B000040494860207800F0010078B3606801280F
:100B100006D13C48006800F4003090B90120B8E7E5
:100B20006068022806D13748006800F0007040B9BC
:100B30000120AEE73348006800F0020008B9012048
:100B4000A7E73048406820F00300616808432D495A
:100B50004860FFF78DFE064609E0FFF789FE801B1F
:100B600041F28831884202D9032092E707E0254804
:100B7000406800F00C006168B0EB810FEDD12048B7
:100B8000006800F00700A8420ED91D48006820F058
:100B9000070028431A4908600846006800F007006B
:100BA000A84201D0012074E7207800F00400042856
:100BB00007D11448406820F4E060E1680843114917
:100BC0004860207800F00800082808D10D484068E7
:100BD00020F46050216940EAC1000A49486000F0F1
:100BE00061F808494968C1F30311074A515CC840DC
:100BF0000649086006480068FFF760FE002048E7E5
:100C000000200240001002408E3C00080C00002032
:100C1000040000200F2202600D4A526802F0030215
:100C200042600B4A526802F0F0028260084A526841
:100C300002F4E062C260064A526802F46052D208CE
:100C40000261044A126802F007020A60704700005D
:100C50000010024000200240014800687047000078
:100C60000C00002000B5FFF7F7FF04494968C1F305
:100C70000221034A515CC84000BD00000010024040
:100C80009E3C000800B5FFF7E7FF04494968C1F33F
:100C9000C221034A515CC84000BD00000010024060
:100CA0009E3C000870B50021002200240023002093
:100CB000134D696801F00C05F5B1042D02D0082D23
:100CC00019D101E00F4819E00F4DC1F38346AB5D28
:100CD00001F4803555B10A4D6D68C5F340450B4EA2
:100CE000725D084D5D43B5FBF2F402E0084D03FB75
:100CF00005F4204602E000BF024800BF00BF70BDFF
:100D00000010024000127A007C3C00088C3C000875
:100D100000093D00F8B504460CB90120F8BD207863
:100D200000F00100002878D0F848406800F00C007E
:100D300004280CD0F548406800F00C00082811D1B8
:100D4000F248406800F48030B0F5803F0AD1EF48A7
:100D5000006800F4003000285FD0606800285CD193
:100D60000120DBE700BF6068B0F5803F06D1E748AF
:100D7000006840F48030E549086028E0606858B9B0
:100D8000E248006820F48030E049086008460068C6
:100D900020F4802008601AE06068B0F5A02F0BD125
:100DA000DA48006840F48020D849086008460068A6
:100DB00040F4803008600AE0D448006820F48030B5
:100DC000D24908600846006820F48020086000BF0F
:100DD000606888B1FFF74CFD054606E0FFF748FD67
:100DE000401B642801D9032098E7C848006800F434
:100DF00000300028F2D010E0FFF73AFD054606E08B
:100E0000FFF736FD401B642801D9032086E7BF4861
:100E1000006800F400300028F2D1207800F00200D1
:100E2000022857D1B948406800F00C0050B1B748CB
:100E3000406800F00C00082818D1B448406800F45D
:100E4000803098B9B148006800F0020020B12069F4
:100E5000012801D0012061E7AC48006820F0F800CB
:100E6000616940EAC100A949086033E02069E8B13E
:100E70000120A7490860FFF7FBFC054606E0FFF7E5
:100E8000F7FC401B022801D9032047E79F48006870
:100E900000F002000028F2D09C48006820F0F80022
:100EA000616940EAC1009949086013E0002098494F
:100EB0000860FFF7DDFC054606E0FFF7D9FC401BA4
:100EC000022801D9032029E79048006800F00200B9
:100ED0000028F2D1207800F0080008282DD1A06960
:100EE000B8B101208B490860FFF7C2FC054606E057
:100EF000FFF7BEFC401B022801D903200EE7834800
:100F0000406A00F002000028F2D0012000F030FF1B
:100F100013E000207F490860FFF7AAFC054606E0C1
:100F2000FFF7A6FC401B022801D90320F6E677480C
:100F3000406A00F002000028F2D1207800F004009E
:100F4000042873D100277148C06900F0805070B93F
:100F500000BF6E48C06940F080506C49C8610846C7
:100F6000C06900F08050009000BF00BF01276A48B0
:100F7000006800F48070B0B96748006840F4807081
:100F800065490860FFF774FC054606E0FFF770FC52
:100F9000401B642801D90320C0E65F48006800F4C4
:100FA00080700028F2D000BFE068012806D15748C1
:100FB000006A40F001005549086227E0E06858B92E
:100FC0005248006A20F00100504908620846006A51
:100FD00020F00400086219E0E06805280BD14B48B6
:100FE000006A40F00400494908620846006A40F07F
:100FF000010008620AE04548006A20F00100434908
:1010000008620846006A20F00400086200BFE06839
:10101000A0B1FFF72DFC054609E0FFF729FC401BB6
:1010200041F28831884202D9032077E622E037482E
:10103000006A00F002000028EFD012E0FFF718FC71
:10104000054608E0FFF714FC401B41F28831884256
:1010500001D9032062E62D48006A00F00200002852
:10106000F0D1012F05D12948C06920F080502749CF
:10107000C86100BFE069C8B32448406800F00C00B4
:10108000082860D0E069022848D10020204908667D
:10109000FFF7EEFB054606E0FFF7EAFB401B0228E0
:1010A00001D903203AE61948006800F000700028D2
:1010B000F2D1206AB0F5803F07D11448406820F48F
:1010C0000030A168084311494860D4E90801084389
:1010D0000E49496821F4741108430C494860012005
:1010E0000B490866FFF7C4FB054607E03DE0FFF744
:1010F000BFFB401B022801D903200FE6034800680C
:1011000000F000700028F2D02FE000000010024034
:101110000000424280044242007000400020144916
:101120000866FFF7A5FB054606E0FFF7A1FB401B9D
:10113000022801D90320F1E50E48006800F0007094
:101140000028F2D111E0E069012800D1E6E5094864
:10115000466806F48031206A814204D106F4701199
:10116000606A814201D00120D8E50020D6E5000068
:1011700000004242001002407047704730B50246FE
:101180000B4600BF92F83C00012801D1022030BD7F
:10119000012082F83C0000BF022082F83D00106868
:1011A00044681068816824F070041868044310686B
:1011B0004460144D1068A84213D0134D1068A84223
:1011C0000FD01068B0F1804F0BD0104D1068A842BE
:1011D00007D00F4D1068A84203D00E4D1068A842EA
:1011E00005D121F080015868014310688160012019
:1011F00082F83D0000BF002082F83C0000BF00BF25
:10120000C5E70000002C014000340140000400400C
:1012100000080040000C004010B504460CB9012045
:1012200010BD94F83D0028B9002084F83C00204609
:1012300000F026F8022084F83D00211D206800F00F
:10124000FFFD012084F8460000BF84F83E00012124
:101250003F200155402001554120015500BF00BFEE
:10126000012084F8420043200155442001554520C7
:10127000015500BF012084F83D000020D0E70000A8
:1012800038B504462068B0F1804F16D100BF184829
:10129000C06940F001001649C8610846C06900F005
:1012A0000100009000BF00BF002204211C20FFF7B6
:1012B00099FB1C20FFF786FB19E00E492068884245
:1012C00015D100BF0A48C06940F002000849C86152
:1012D0000846C06900F00200009000BF00BF002275
:1012E00006211D20FFF77EFB1D20FFF76BFB38BD9D
:1012F0000010024000040040014691F83D00012822
:1013000001D001207047022081F83D000868C068C4
:1013100040F001000B68D860164B0868984213D063
:10132000154B086898420FD00868B0F1804F0BD079
:10133000124B0868984207D0114B0868984203D0B6
:10134000104B086898420CD10868806800F00702CA
:10135000062A0CD00868006840F001000B6818608D
:1013600005E00868006840F001000B681860002084
:10137000C8E70000002C0140003401400004004098
:1013800000080040000C00402DE9F04104460D46E5
:10139000002700BF94F83C00012802D10220BDE8DC
:1013A000F081012084F83C0000BF022084F83D0059
:1013B0002068866826F0770626F47F4620688660D7
:1013C0002868502833D00CDC202850D004DC0028BA
:1013D0004BD0102851D149E0302849D040284CD179
:1013E00039E060282DD0702807D0B0F5805F03D099
:1013F000B0F5005F41D10DE041E0D5E902136A6824
:10140000206800F073FD2068866846F07706206843
:10141000866034E0D5E902136A68206800F066FD52
:101420002068806840F480402168886027E0EA688E
:101430006968206800F06EFD5021206800F061FDB1
:101440001DE0EA686968206800F077FD6021206887
:1014500000F057FD13E0EA686968206800F05AFD63
:101460004021206800F04DFD09E000BF00BF00BF33
:101470002968206800F045FD01E0012700BF00BF9A
:10148000012084F83D0000BF002084F83C0000BF2C
:10149000384684E7704770B504462068C568206800
:1014A000066906F00200022819D105F002000228A0
:1014B00015D1401F216808610120207720688069CC
:1014C00000F0030018B12046FFF7E4FF05E02046D6
:1014D00000F097F8204600F095F80020207706F0FD
:1014E0000400042819D105F00400042815D1C043D4
:1014F00021680861022020772068806900F440702C
:1015000018B12046FFF7C6FF05E0204600F079F845
:10151000204600F077F80020207706F00800082821
:1015200019D105F00800082815D1C04321680861C9
:10153000042020772068C06900F0030018B120461D
:10154000FFF7A8FF05E0204600F05BF8204600F01A
:1015500059F80020207706F01000102819D105F066
:101560001000102815D1C043216808610820207799
:101570002068C06900F4407018B12046FFF78AFF68
:1015800005E0204600F03DF8204600F03BF8002042
:10159000207706F0010048B105F0010030B16FF08E
:1015A000010021680861204600F02EF806F0800056
:1015B000802809D105F08000802805D1C04321682A
:1015C00008612046FFF7D8FD06F04000402809D109
:1015D00005F04000402805D1C0432168086120463D
:1015E00000F01EF806F02000202809D105F02000A8
:1015F000202805D1C043216808612046FFF7BDFDC2
:1016000070BD70477047000010B50446034920685C
:10161000884201D1FFF732F910BD000000140040EC
:1016200070477047704700002DE9F84F0446206866
:1016300005682068C668206847694FF00009CA46F7
:1016400005F00F09B9F1000F0AD105F0200038B1FB
:1016500006F0200020B1204600F0D3FCBDE8F88F52
:10166000B9F1000F7BD007F0010018B906F49070B3
:10167000002874D005F0010030B106F4807018B174
:10168000606C40F00100606405F0040030B107F0C8
:10169000010018B1606C40F00200606405F00200C7
:1016A00030B107F0010018B1606C40F004006064D4
:1016B00005F0080048B106F0200010B907F001005D
:1016C00018B1606C40F008006064606C002845D080
:1016D00005F0200028B106F0200010B1204600F0EF
:1016E00090FC20684069C0F3801A606C00F008002C
:1016F00010B9BAF1000F2CD0204600F03CFC206855
:10170000406900F0400000B300BF00BF2168143101
:1017100051E8001F21F040002168143141E8000227
:10172000002AF3D100BFE06B50B17748E16B48630A
:10173000E06BFEF7FDFD88B1E06B416B88470DE083
:101740002046FFF76FFF09E009E02046FFF76AFF38
:1017500004E02046FFF766FF002060647EE7206B10
:10176000012877D105F01000002873D006F0100092
:101770000028FAD000BF0020009020680068009088
:1017800020684068009000BF00BF2068406900F0FA
:10179000400000285FD0E06B006840681FFA80F8C6
:1017A000B8F1000F55D0A08D404552DDA4F82E8031
:1017B000E06B8069202843D000BF00BF21680C3156
:1017C00051E8001F21F4807021680C3141E80002CB
:1017D000002AF3D100BF00BF00BF2168143151E8D7
:1017E000001F21F001002168143141E80002002AA5
:1017F000F3D100BF00BF00BF2168143151E8001FC2
:1018000021F040002168143141E80002002AF3D1A0
:1018100000BF202084F842000020206300BF00BFEA
:1018200021680C3151E8001F21F0100021680C31B3
:1018300041E80002002AF3D100BFE06BFEF74CFD47
:1018400002206063A08DE28D801A81B22046FFF7EE
:10185000E8FE03E742E0A08DE18D401A1FFA80F810
:10186000E08DD0B3B8F1000F37D000BF00BF2168C2
:101870000C3151E8001F21F4907021680C3141E8CF
:101880000002002AF3D100BF00BF00BF216814315D
:1018900051E8001F21F001002168143141E80002E5
:1018A000002AF3D100BF202084F8420000202063EA
:1018B00000BF00BF21680C3151E8001F21F010006B
:1018C00021680C3141E80002002AF3D100BF022058
:1018D000606341462046FFF7A4FEBFE605F08000A6
:1018E00030B106F0800018B1204600F087FCB5E664
:1018F00005F0400030B106F0400018B1204600F07D
:1019000070FBABE600BFA9E6631F000810B50446F4
:101910000CB9012010BDA06900B100E000BF94F82F
:10192000410028B9002084F84000204600F02AF841
:10193000242084F841002068C06820F40050216809
:10194000C860204600F0DCFB2068006920F490406D
:10195000216808612068406920F02A0021684861F8
:101960002068C06840F400502168C86000206064AE
:10197000202084F8410084F842000020606300BF0A
:10198000C8E7000010B586B004460020029003901E
:10199000049005901E492068884236D100BF1D483A
:1019A000806940F480401B4988610846806900F4E2
:1019B0008040019000BF00BF00BF0846806940F032
:1019C000040088610846806900F00400019000BFAF
:1019D00000BF48150290022003900320059002A941
:1019E0000D48FEF78DFD4FF48060029000200390BB
:1019F000049002A90848FEF783FD00221146252025
:101A0000FEF7F0FF2520FEF7DDFF06B010BD000059
:101A100000380140001002400008014070472DE9E5
:101A2000F84F04460E46174699464FF0000A94F8C0
:101A30004100202850D106B117B90120BDE8F88F28
:101A400000206064212084F84100FEF711FF8246E7
:101A5000A784E784A068B0F5805F04D1206910B93D
:101A60000025B04602E035464FF000081EE0534620
:101A7000002280212046CDF8009000F0EFFB20B13D
:101A8000202084F841000320D8E745B9B8F80000C9
:101A9000C0F308002168486008F1020803E02878D4
:101AA000216848606D1CE08C401EE084E08C0028BA
:101AB000DDD15346002240212046CDF8009000F0B1
:101AC000CDFB20B1202084F841000320B6E7202080
:101AD00084F841000020B1E70220AFE7704700BF63
:101AE000FEE7000010B54FF400512248FEF7A8FEB3
:101AF00050B90A20FEF7F0FC4FF400511D48FEF7E4
:101B00009FFEA0BB012010BD4FF480411948FEF795
:101B100097FE50B90A20FEF7DFFC4FF480411548CC
:101B2000FEF78EFE18BB0220EDE74FF4004111488E
:101B3000FEF786FE50B90A20FEF7CEFC4FF40041B6
:101B40000C48FEF77DFE90B90320DCE74FF480617E
:101B50000948FEF775FE50B90A20FEF7BDFC4FF4A8
:101B600080610548FEF76CFE08B90420CBE7FFE76B
:101B70000020C8E700180140000C014000B585B006
:101B80000020019002900390049000BF2E488069CD
:101B900040F010002C4988610846806900F0100070
:101BA000009000BF00BF00BF0846806940F04000C1
:101BB00088610846806900F04000009000BF00BFC7
:101BC00000BF0846806940F00800886108468069C7
:101BD00000F00800009000BF00BF00BF0846806909
:101BE00040F0040088610846806900F0040000901D
:101BF00000BF00BF0122C0211448FEF733FE4FF49E
:101C000060400190002002900120039001A910483B
:101C1000FEF776FC4FF480600190002002900120D6
:101C2000039001A90948FEF76BFCC0200190112028
:101C30000290002003900320049001A90348FEF7BE
:101C40005FFC05B000BD000000100240000C014028
:101C50000018014000B587B0002003900490059063
:101C60000690019002904FF080401449086041F6C0
:101C70001F4048600021114881604FF6FF71C1602C
:101C8000002101618161FFF7C7FA08B1FEF705FB8A
:101C90004FF48050039003A90848FFF775FB08B183
:101CA000FEF7FBFA00200190029001A90348FFF71C
:101CB00065FA08B1FEF7F1FA07B000BD1401002083
:101CC00000B587B000200390049005900690019025
:101CD000029015481549086041F61F4048600021F0
:101CE000124881604FF6FF71C1600021016181617E
:101CF000FFF792FA08B1FEF7D0FA4FF48050039044
:101D000003A90A48FFF740FB08B1FEF7C6FA002016
:101D10000190029001A90548FFF730FA08B1FEF7DB
:101D2000BCFA07B000BD0000000400405C010020C8
:101D300010B50B480B4908604FF4E13048600021B2
:101D400008488160C16001610C214161002181610D
:101D5000C161FFF7DBFD08B1FEF79FFA10BD00007F
:101D6000003801408400002000BFFEE700BFFEE70E
:101D700008B508490968C9084FF47A72B1FBF2F155
:101D80004143009100BF00BF00994A1E0092002904
:101D9000F9D108BD0C00002010B501F0D3FD0128D9
:101DA00001D001F099FD10BD00B58FB0282105A824
:101DB000FEF72DFA14216846FEF729FA0120059056
:101DC00000040690002007900120099002200C904A
:101DD000C1030D914FF4E0110E9105A8FEF79AFF93
:101DE00008B1FEF75AFA0F2000900220019000205F
:101DF00002904FF480600390002004900221684616
:101E0000FEF742FE08B1FEF748FA0FB000BD70477A
:101E100010B50248FFF73FFB10BD00001401002081
:101E200010B50248FFF737FB10BD00005C01002031
:101E300010B50248FFF72FFB10BD0000CC000020BA
:101E400010B50268244B98420ED0244B98420BD018
:101E5000B0F1804F08D0224B984205D0214B9842D8
:101E600002D0214B984203D122F070024B681A43F2
:101E7000194B98420ED0194B98420BD0B0F1804FBD
:101E800008D0174B984205D0164B984202D0164BFB
:101E9000984203D122F44072CB681A4322F08003A7
:101EA0004C6943EA040202608B68C3620B68836278
:101EB000094B984202D0094B984201D10B69036348
:101EC00001234361036903F001031BB1036923F09C
:101ED0000103036110BD0000002C014000340140EB
:101EE0000004004000080040000C004030B50C46E3
:101EF000816821F47F4142EA03252543294381601B
:101F000030BD0A46816821F0700142F00703194391
:101F10008160704730B50B461446026A056A25F0A9
:101F200001050562816921F0F00141EA041122F006
:101F30000A021A438161026230BD30B50B46144675
:101F4000026A056A25F010050562816921F4704175
:101F500041EA043122F0A00242EA031281610262E6
:101F600030BD70B505466C6A0020E085E0842046EF
:101F7000FFF758FB70BD00BF00BF02680C3252E88B
:101F8000002F22F4907102680C3242E80013002BFB
:101F9000F3D100BF00BF00BF0268143252E8002F27
:101FA00022F001010268143242E80013002BF3D141
:101FB00000BF016B01290ED100BF00BF02680C32C7
:101FC00052E8002F22F0100102680C3242E80013A0
:101FD000002BF3D100BF202180F8421000210163C3
:101FE000704710B504462068C06820F040002168A2
:101FF000C860202084F841002046FFF76FFD0020D4
:1020000010BDF8B5044694F84200222875D1A068A6
:10201000B0F5805F0CD1206950B90025A66A206810
:102020004068C0F308003080A06A801CA06215E000
:10203000A56A0026A068B0F5805F03D0A06828B923
:10204000206918B920684068287004E0206840685A
:1020500000F07F002870A06A401CA062E08D401E46
:1020600080B2E085002846D12068C06820F02000BA
:102070002168C8602068C06820F480702168C8604A
:102080002068406920F0010021684861202084F820
:10209000420000206063206B012826D100202063CD
:1020A00000BF00BF21680C3151E8001F21F0100073
:1020B00021680C3141E80002002AF3D100BF2068FA
:1020C000006800F0100010280AD100BF0020009026
:1020D00020680068009020684068009000BF00BF42
:1020E000A18D2046FFF79DFA02E02046FFF796FCFF
:1020F0000020F8BD01E00020FBE70220F9E7000026
:1021000070B504462168096921F44051E268114321
:10211000226811612269A1681143626941EA0205DE
:102120002168C96841F20C62914329432268D16059
:102130002168496921F44071A26911432268516103
:102140002D4A2168914202D1FEF79CFD01E0FEF785
:1021500089FD00EBC00101EB001162689200B1FB48
:10216000F2F100EBC00202EB001263689B00B2FBCD
:10217000F3F26423B2FBF3F202EBC20303EB0212AD
:10218000A1EB8201322202EB01116422B1FBF2F1D8
:1021900001F0F00100EBC00202EB001263689B004B
:1021A000B2FBF3F26423B2FBF3F201EB021200EB99
:1021B000C00101EB001163689B00B1FBF3F100EB80
:1021C000C00303EB00136668B600B3FBF6F36426A6
:1021D000B3FBF6F303EBC30606EB0313A1EB83019A
:1021E000322303EB01116423B1FBF3F101F00F0182
:1021F00011442268916070BD00380140014691F899
:102200004100212828D18868B0F5805F0BD108698A
:1022100048B90A6A1088C0F308000B685860086A59
:10222000801C086205E00B6A581C086218780B686D
:102230005860C88C401E80B2C88458B90868C0680D
:1022400020F080000B68D8600868C06840F040004B
:102250000B68D860002070470220FCE72DE9F843A6
:1022600004460D4617469846089E31E0701C70B330
:10227000FEF7FEFAA0EB0800B04200D816B9032022
:10228000BDE8F8832068C06800F00400F8B1802D34
:102290001ED0402D1CD020680068C0F3C000B0B133
:1022A00000BF00200090206800680090206840680F
:1022B000009000BF00BF2046FFF75DFE082060646D
:1022C00000BF002084F8400000BF0120D8E7FFE7EE
:1022D000206800682840A84201D1012000E00020C9
:1022E000B842C3D00020CBE710B50248FFF79CF9F5
:1022F00010BD00008400002000BFFEE70FB4054BB6
:1023000010B503A9044A029800F04CF810BC5DF81F
:1023100014FB000099270008800000200FB41CB5B2
:102320000246002007AC00290BD0491ECDE9002150
:10233000054B6A462146069800F034F8009A0021C1
:1023400011701CBC5DF814FBE72600080248006809
:10235000C0F30220704700000CED00E010B500282B
:1023600004DB0A07130E054A135406E00A07140E8D
:10237000034A00F00F031B1FD45410BD00E400E01B
:1023800018ED00E002E008C8121F08C1002AFAD1C7
:1023900070477047002001E001C1121F002AFBD1E5
:1023A000704700002DE9FF4F8BB088460546002698
:1023B00006E025280BD0DDE90D1290476D1C761C38
:1023C00028780028F5D10FB03046BDE8F08F002402
:1023D000A146A2460122AE4900E0044315F8013FA0
:1023E000203B02FA03F00842F7D128782A2810D0BF
:1023F0006FF02F022878A0F13001092915D809EBD8
:10240000890102EB410144F0020400EB01096D1C5B
:10241000F0E758F8041B5FEA010903D544F40054BF
:10242000C9F1000944F002046D1C28782E2817D148
:1024300015F8010F44F004042A280ED06FF02F0283
:102440002878A0F1300109290AD80AEB8A0102EBA9
:10245000410100EB010A6D1CF2E758F804AB6D1C5A
:1024600028786C280FD006DC4C2817D068280DD0AF
:102470006A2814D104E0742810D07A280FD10DE016
:1024800044F400140AE044F4801401E044F44014DD
:102490006978814202D104F580146D1C6D1C287886
:1024A000692865D006DC00288DD0632827D06428F1
:1024B00006D15DE06E2808D073282AD0752877D021
:1024C000DDE90D129047761CE0E0C4F302500228CB
:1024D00009D003280DD0D8F8001004280DD00E60C4
:1024E00008F10408D2E0D8F80010F217C1E9006240
:1024F000F6E7D8F800100E80F2E70E70F0E718F853
:10250000041B8DF8001000208DF80100EB4601201F
:1025100003E058F804BB4FF0FF3061074FF00007AD
:1025200001D40AE07F1C57450DDA8742FADB1BF81D
:1025300007100029F6D106E07F1C8742FCDB1BF860
:1025400007100029F8D1DDE90D23A9EB070081462A
:10255000214600F0B1F83044C61904E0DDE90D125F
:102560001BF8010B90477F1EF8D22146484688E0B1
:1025700058F8040BC4F302514FF00A0B032900D1A1
:1025800000B2042900D140B2002802DA40422D21D5
:1025900002E0210505D52B218DF82410012104E04E
:1025A00006E0E10710D02021F6E708AF089113E01C
:1025B00058F8040BC4F302514FF00A0B032900D161
:1025C00080B2042900D1C0B20021EEE75946FDF7E0
:1025D00039FE303107F8011D0028F7D1ADEB0700B7
:1025E00000F1200B600702D524F4803401E04FF0A5
:1025F000010ADA4502DDAAEB0B0000E0002082466A
:1026000000EB0B0108980144A9EB01000A90E003DC
:1026100006D4DDE90D2321460A9800F04DF8064462
:102620004FF0000908E009A911F80900DDE90D12D1
:10263000904709F10109761C08998945F3DBE0030D
:102640000CD5DDE90D2321460A9800F035F8064443
:1026500004E0DDE90D1230209047761CBAF100014C
:10266000AAF1010AF5DC05E0DDE90D1217F8010B0E
:102670009047761CBBF10001ABF1010BF4DC0A982A
:102680002146DDE90D2300F005F806446D1C97E6B0
:10269000092801002DE9F041044600251E46174691
:1026A000880404D405E039462020B0476D1C641E20
:1026B000F9D52846BDE8F0812DE9F0410446002512
:1026C0001E469046C80301D5302700E02027880425
:1026D00004D505E041463846B0476D1C641EF9D567
:1026E0002846BDE8F0814A68002A06D00A68531CD3
:1026F0000B6010704868401E486070472DE9F04735
:1027000007463E461E480068864201D1002434E058
:1027100000F0C2FD7569D6F828801A48D0F80090FC
:102720001948D0F800A000F0C9FD1848804501D133
:10273000012422E04D4501D0554501D102241CE081
:102740001348854212D1B06A70B90324002007E013
:1027500006F15001095C012901D1022402E0401C6C
:102760000128F5DB00BF08E0022406E009488542A5
:1027700000D00DB9042400E001242046BDE8F08714
:10278000100000201400002018000020300200205B
:10279000580200204402002013B50C464FF0FF33CE
:1027A000012269460248FFF73AF900981CBD000073
:1027B00084000020FEF76EF84FF47A70FDF78CFE6F
:1027C000FFF7F2FAFFF7DAF9FFF7B2FAFFF742FA8A
:1027D000FFF776FA03A0FFF791FDFDF761FD00BF5B
:1027E000FEE700004672656552544F5320537461F2
:1027F00072740D0A000000002DE9F04705460E46F0
:10280000294807682948D0F800802948D0F8009066
:1028100028480068001D00F09DFC50B9254800685C
:1028200090F82C10012088402349096881432248F0
:102830000160681CE0B9DEB100BF204948681D494D
:10284000096888601B4982680968CA601949096873
:10285000091D8268516017490968091D8160174A7E
:10286000144909684A6111460968491C116018E059
:102870007C19104800684460BC4206D20D480168CB
:10288000091D484600F0E2FC0BE00A480168091DFA
:10289000404600F0DBFC0A480068844201D2084848
:1028A0000460BDE8F0870000240000201400002030
:1028B00018000020100000202800002058020020EE
:1028C0004000002010B5044600F0E6FC34480068E3
:1028D000401C334908603348006840B931480460FF
:1028E0000846006801280DD100F08CF90AE02E4856
:1028F000006838B92B480068C06AE16A884201D88C
:102900002848046029480068401C28490860084697
:102910000068606400BF94F82C10012088402449AE
:10292000096808432249086000BFE16A01EB8101A0
:10293000204A02EB81014868A0608268E260211DA4
:10294000826851608160E16A01EB8101194A02EB02
:1029500081026261E16A01EB8101164A52F821109D
:10296000491CE26A02EB8202124B43F8221000BFBC
:1029700000BF00F0A3FC0C48006878B100BF094814
:102980000068C06AE16A884207D24FF080500A4965
:102990000860BFF34F8FBFF36F8F00BF10BD000003
:1029A00020000020100000202C0000203C0000200F
:1029B00028000020A401002004ED00E010B516E07E
:1029C00000F06AFC0C48C068C468201D00F0C2FB1F
:1029D0000A480068401E0949086009480068401E0E
:1029E0000749086000F06AFC204600F074F80448CB
:1029F00000680028E4D110BD44020020200000201F
:102A00001C000020F0B587B0012600200390049040
:102A1000059006900027002408E014A0005D03A99B
:102A2000085503A8005D00B902E0641C0F2CF4D324
:102A300000BF002003A90855002511E00D4F0E48E6
:102A400000EB850000210B468022CDE9001003A990
:102A5000384600F05BFF0646012E00D002E06D1CF8
:102A6000012DEBDB00BF304607B0F0BD49444C45BB
:102A700000000000552B0008440000202DE9FF5FF6
:102A80000746884616469946DDE90EABB00000F0D1
:102A9000BFF9054675B1542000F0BAF904462CB1CF
:102AA00054212046FDF7B3FB256304E0284600F0DF
:102AB00015FC00E0002454B100204B46324641464C
:102AC000CDE900ABCDE90240384600F057F820468A
:102AD00004B0BDE8F09F10B50446206B00F0FEFB8B
:102AE000204600F0FBFB10BD30B54FF4884314487E
:102AF00000F007042CB1C01D20F00700104C041B8F
:102B00001B1B104C206000240E4D6C60C218083A4C
:102B100022F007020C4C226000240B4D2D686C60E3
:102B2000094D2D682C600146541A4C60064C2468EF
:102B30000C60064D4C682C60054D4C682C6030BD17
:102B40006C0200205000002058000020600000208F
:102B50005C00002000BFFFF731FF06480068012835
:102B6000F9D94FF0805004490860BFF34F8FBFF38D
:102B70006F8FF0E7A401002004ED00E02DE9F05F85
:102B800081460E4617469A46DDF828800C9CB9000F
:102B9000A522206BFDF734FB781E216B01EB800B27
:102BA0002BF0070B7EB1002507E0715D04F13400C6
:102BB0004155705D00B902E06D1C102DF5D300BFCA
:102BC000002143200155B8F1050F01D34FF004084F
:102BD000C4F82C80201D00F036FB04F1180000F032
:102BE00032FB2461C8F10500A06164625246494687
:102BF000584600F08FF920600B9808B10B980460DC
:102C0000BDE8F09F10B5002407E004EB84010F4AF3
:102C100002EB810000F00AFB641C052CF5D30C4884
:102C200000F004FB0B4800F001FB0B4800F0FEFA3B
:102C30000A4800F0FBFA0A4800F0F8FA044809498B
:102C4000086004480849086010BD0000A401002085
:102C5000080200201C020020300200204402002054
:102C600058020020140000201800002010B5014672
:102C7000164800E0006803688B42FBD302464368B5
:102C800013448B4204D143684C682344436001469B
:102C90000A464B6813440468A34211D10C4C0368E4
:102CA0002468A34208D04B680468646823444B60DE
:102CB00003681B680B6005E0054B1B680B6001E0B7
:102CC00003680B60884200D0016010BD50000020F6
:102CD000580000202DE9F04707460C469046002694
:102CE00004F10809B246206880B1E5680CE0D5F827
:102CF0000CA006EBC60007EB8001434601225046BC
:102D000000F0AEFB761C6D684D45F0D13046BDE855
:102D1000F087000009480068006808B9012000E059
:102D2000002020B14FF0FF300549086005E003485E
:102D30000068C068006802490860704714000020FD
:102D4000400000200246002A01DA002004E08A4206
:102D500001DB481E00E0104670470146002001E0FC
:102D6000491C401C0A78A52AFAD08008704700BF89
:102D7000BF2080F31188BFF34F8FBFF36F8F00BF69
:102D800000BFFEE710B5024600231146134C486908
:102D9000A04201D1012000E00020E0B1104C886A7F
:102DA000A04201D1012000E00020A0B9886A08B942
:102DB000012000E0002070B10123002007E001F1B4
:102DC0005004245C012C01D1002302E0401C0128A6
:102DD000F5DB00BF00BF184610BD00005802002000
:102DE0003002002070B505460E4631462846FDF7F4
:102DF00020FA2846FDF716FA044602E0202028555E
:102E0000641C0F2CFAD300202855281970BD00002F
:102E10002DE9F04704464FF00009CA46DCB114F131
:102E2000090F01D9012000E0002098B9083404F00E
:102E3000070080B104F00700C0F10808C8F1FF30B6
:102E4000A04201D2012000E0002008B9444402E081
:102E5000002400E0002400F0E9FC2948006808B9DB
:102E6000FFF742FE012000EBE470002843D0002C65
:102E700041D02448006884423DD8234E304605683E
:102E800001E02E462D686868A04202D2286800281A
:102E9000F7D11B48006885422DD0306800F1080941
:102EA000286830606868001B102807D92F196868E7
:102EB000001B78606C603068386037601149686862
:102EC0000968081A0F490860084600680F49096830
:102ED000884203D20B4800680C490860D5F804A06A
:102EE000686840F00040686000202860084800687A
:102EF000401C0749086000F005FE4846BDE8F08721
:102F0000580000205C0000205000002060000020DD
:102F100064000020001F4FF080730360001F21F049
:102F200001030360001F034B036014380260203864
:102F3000704700006F2D00081CB5044600F0ACF986
:102F40001148022100238022CDE900100FA114486E
:102F500000F0DCFC1348032100238022CDE900109F
:102F600011A1164800F0D2FC15480421002380224C
:102F7000CDE9001013A1184800F0C8FC002000F0B3
:102F8000F9F900F09BF91CBD7400002073746172A4
:102F9000745F7374617469635F7461736B31000093
:102FA000DD2F00087800002073746172745F737401
:102FB000617469635F7461736B3200000D300008E7
:102FC0007C00002073746172745F73746174696350
:102FD0005F7461736B3300003D3000080AE006A0A7
:102FE000FFF78CF940210848FDF732FC4FF4FA70E6
:102FF00000F0A6F9F3E700005468697320697320B4
:103000007461736B310D0A00000C01400AE006A0E8
:10301000FFF774F980210848FDF71AFC4FF47A7025
:1030200000F08EF9F3E7000054686973206973209B
:103030007461736B320D0A00000C0140B2B0C821FC
:103040006846FDF7E4F8002439E01DA0FFF756F9C3
:10305000FEF748FD0446012C06D0022C0CD0032CB0
:1030600012D0042C1CD115E01948006800F070FB48
:1030700018A0FFF743F914E01548006800F0E4FADF
:103080001BA0FFF73BF90CE000F0D0FB1FA0FFF7FF
:1030900035F906E000F036FD24A0FFF72FF900E037
:1030A00000BF00BF4FF6FF71684600F03FFA694667
:1030B00026A0FFF723F94FF4FA7000F041F9C4E7B6
:1030C00054686973206973207461736B330D0A004F
:1030D000740000203E3E3E3E3E73757370656E6424
:1030E000207461736B313C3C3C3C3C0D0A00000099
:1030F0003E3E3E3E3E726573756D65207461736B36
:10310000313C3C3C3C3C0D0A000000003E3E3E3E53
:103110003E73757370656E6420616C6C20746173AE
:103120006B733C3C3C3C3C0D0A0000003E3E3E3E86
:103130003E726573756D6520616C6C207461736B94
:10314000733C3C3C3C3C0D0A0000000025730D0A1A
:103150000000000001460A69D1E901309860D1E918
:10316000010358605068884201D18868506000208F
:1031700008611068401E1060106870472DE9F0412A
:103180000546884616460024052700F04FFB2148D7
:103190000068804539D300BF7F1E07EB87021E4BB6
:1031A00003EB820104EBC40205EB82000122FFF76E
:1031B00091FD0444002FEFD104EBC40105EB810025
:1031C000022216490968FFF785FD044404EBC40197
:1031D00005EB8100022212490968FFF77BFD0444D8
:1031E00004EBC40105EB810004220E49FFF772FDD8
:1031F000044404EBC40105EB810003220A49FFF7F4
:1032000069FD04440EB10020306000F07BFC2046D4
:10321000BDE8F08120000020A4010020140000205F
:1032200018000020440200205802002000F108018C
:1032300041604FF0FF31816000F10801C160016120
:1032400000210160704700210161704710B50246FE
:103250000B685C1C0CB9106907E002F1080000E083
:103260004068446824689C42FAD944684C604C68C1
:10327000A160886041600A611468641C146010BD1C
:1032800042684A6093688B609368596091600861F6
:1032900003685B1C0360704700BFBF2080F3118888
:1032A000BFF34F8FBFF36F8F00BF03480068401C10
:1032B00001490860704700006C0000200648006863
:1032C000401E054908600846006820B9002080F3C8
:1032D000118800BF00BF70476C00002070B5064623
:1032E0003546E6B1083D2C466068C00FB8B120688D
:1032F000A8B9606820F00040606000F097FA0849C3
:10330000606809680844064908602046FFF7AEFC7B
:1033100004480068401C0349086000F0F3FB70BDDE
:103320005C0000206800002000204FF0E0210861D0
:103330008861024848610720086170473F19010011
:1033400070B50446002544B100F070FA0021204613
:10335000FFF752FA00F0D6FB05463DB94FF080501A
:1033600003490860BFF34F8FBFF36F8F70BD00003C
:1033700004ED00E02DE9F04105460026FFF78CFF43
:1033800015B92E48006800E028460446201DFFF7C6
:10339000E1FE88B900BFE06A00EB8000284951F8DF
:1033A000200040B994F82C10012088402549096874
:1033B00081432448016000BFA06A18B104F11800DD
:1033C000FFF7C8FE20480068401C1F4908601B48E2
:1033D0000068844201D1012000E0002007461B481C
:1033E000006858B157B1211D1948FFF749FF194826
:1033F0000068401C17490860012606E0164800686E
:10340000401E15490860FFF785FCFFF757FF012EA6
:1034100002D02046FFF75FFB0C48006858B1074810
:103420000068844207D14FF080500C490860BFF318
:103430004F8FBFF36F8FBDE8F081000010000020B8
:10344000A4010020280000203C0000202C000020C7
:10345000440200201C0000202000002004ED00E0B9
:103460002DE9F04107460C4690461E4617B92D48F7
:10347000006800E038460546256005F134006060CC
:10348000E86A2061286BE061686CA06000206061E0
:10349000A061052E35D023480068854201D1012066
:1034A00000E00020012802D1002020732DE02673C7
:1034B000032E17D100F0BAF9A86A10B102202073C8
:1034C0000EE0002008E005F15001095C012902D15D
:1034D0000221217302E0401C0128F4DB00BF00BF81
:1034E00000F010FBFFF7D8FE0F49A86A884201D10F
:1034F000012000E0002008B101202073FFF7DEFE6C
:1035000003E02846FFF7FAF82073B8F1000F04D063
:10351000286BFFF722FC206201E000202062BDE85A
:10352000F081000010000020300200202DE9F04F53
:1035300085B081460F4600260020049089F80000DF
:103540003C48D0F800B00146096801EBC101880091
:10355000FFF75EFC0546002D69D00022594628463B
:10356000FFF70CFE834600245BE004EBC40005EB90
:103570008000007B062813D2DFE800F00306090C68
:103580000F13582003900FE0522003900CE04220CC
:10359000039009E05320039006E04420039003E0E9
:1035A00000BF0020039000BF00BF06F11000B8422A
:1035B00030D804EBC40005EB800041684846FFF7B3
:1035C00011FC81460F36781EB04220D904EBC400AE
:1035D00005EB8000806804EBC40105EB8101096AFA
:1035E00004EBC40205EB82021269CDE900210290CE
:1035F000B91B11A24846039BFEF790FE8246B91BF9
:103600005046FFF79FFB80464644C14404E001203A
:10361000049001E0012004900498012800D102E008
:10362000641C5C45A1D300BF2846FFF757FE05B0D8
:10363000BDE8F08F200000200925630925750925C4
:10364000750925750D0A000070B505462C462948F8
:10365000006884424CD0002C4AD0FFF71DFE204663
:10366000FFF790FB002841D0201DFFF773FD00BF3E
:1036700094F82C10012088401F49096808431E490E
:10368000086000BFE16A01EB81011C4A02EB810185
:103690004868A0608268E260211D82685160816094
:1036A000E16A01EB8101154A02EB81026261E16A84
:1036B00001EB8101114A52F82110491CE26A02EB28
:1036C00082020E4B43F8221000BF00BF00BF094822
:1036D0000068C06AE16A884207D24FF0805008490A
:1036E0000860BFF34F8FBFF36F8F00BFFFF7E6FD9A
:1036F00070BD00001000002028000020A401002060
:1037000004ED00E010B5FFF77DF90446012C14D15B
:1037100000BFBF2080F31188BFF34F8FBFF36F8FBF
:1037200000BF4FF0FF3006490860012005490860DE
:1037300000200549086000F0B5F80448006810BD95
:10374000400000202C000020240000204800002021
:1037500070B50546FFF7A0FD15B92D48006800E0DB
:1037600028460446201DFFF7F5FC88B900BFE06A33
:1037700000EB8000274951F8200040B994F82C1044
:10378000012088402449096881432348016000BF23
:10379000A06A18B104F11800FFF7DCFC211D1F48D6
:1037A000FFF76EFD002009E004F15001095C0129DA
:1037B00003D1002204F150010A54401C0128F3DB1C
:1037C000FFF77CFD1648006828B1FFF765FDFFF79D
:1037D000A1FAFFF773FD0E480068844217D1104824
:1037E000006840B14FF080500E490860BFF34F8F22
:1037F000BFF36F8F0BE0094806680B4800688642EC
:1038000003D100200249086001E000F017F870BD04
:1038100010000020A40100202800002058020020F1
:103820002C00002004ED00E0200000200248006889
:10383000401C0149086070474C0000201448006893
:1038400018B101201349086021E0002011490860E7
:1038500000BF11480068B0FA80F0C0F11F0100BF3E
:1038600001EB81020D4B03EB82004268526842601B
:1038700000F108024368934201D1C2684260426885
:10388000D268074B1A6000BF00BF18460068704737
:103890004C0000203400002028000020A40100205B
:1038A0001000002010B50A48006840F47F00084965
:1038B00008600846006840F07F400860FFF734FD6C
:1038C000002004490860FCF74FFC002010BD0000F8
:1038D00020ED00E06C00002010B500BFBF2080F399
:1038E0001188BFF34F8FBFF36F8F00BF00F03AF81E
:1038F00018B14FF080500449086000BF002080F3E9
:10390000118800BF10BD000004ED00E02DE9FC5F50
:1039100006460F4690469946DDE90CAB4B464246BB
:1039200039463046CDE900ABFFF7A8F8054625B18A
:103930002846FEF7C7FF012401E04FF0FF34204680
:10394000BDE8FC9F0549096809B9012005E0044963
:10395000096809B9022000E0002070472C0000200F
:103960004C0000202DE9F04100275B48006800284A
:103970007DD15A480068451C5848056095B900BF7C
:103980005748D0F8008057480068554908605548A6
:10399000C0F8008054480068401C53490860FFF795
:1039A000B9F900BF5148006885427DD300BF4C483B
:1039B0000068006808B9012000E0002020B14FF045
:1039C000FF304A4908606EE045480068C068C46836
:1039D0006668B54202D24548066064E000BF60698F
:1039E000D4E902128A60D4E902214A60211D4268AA
:1039F0008A4201D1E1684160002262610168491E8A
:103A0000016000BFA06AA0B100BFA06AD4E907129C
:103A10008A60D4E907214A6004F1180142688A42A9
:103A200001D1216A41600022A2620168491E016041
:103A300000BF00BF94F82C10012088402C49096871
:103A400008432B49086000BFE16A01EB8101294A64
:103A500002EB81014868A0608268E260211D8268F3
:103A600051608160E16A01EB8101224A00E02BE0B4
:103A700002EB81026261E16A01EB81011D4A52F8A9
:103A80002110491CE26A02EB82021A4B43F8221011
:103A900000BF00BF1849E06A0968C96A884286D930
:103AA000012784E700E000BF13480068C06A00EB0C
:103AB0008000104951F82000012800D901270F4843
:103AC000006800B1012704E00D480068401C0C4963
:103AD00008603846BDE8F0814C000020240000203A
:103AE00014000020180000203800002040000020B2
:103AF00028000020A4010020100000203400002035
:103B0000300000202DE9F04100240026FFF7C4FB1F
:103B1000002751480068401E4F4908600846006869
:103B200000287DD14D480068002879D063E04C48DA
:103B3000C068C46800BFA06AD4E907128A60D4E9EB
:103B400007214A6004F1180142688A4201D1216AC2
:103B500041600022A2620168491E016000BF00BFEF
:103B60006069D4E902128A60D4E902214A60211D09
:103B700042688A4201D1E1684160002262610168C5
:103B8000491E016000BF00BF94F82C10012088403E
:103B90003449096808433349086000BFE16A01EB12
:103BA0008101314A02EB81014868A0608268E260CD
:103BB000211D826851608160E16A01EB81012A4A1E
:103BC00002EB81026261E16A01EB8101264A52F84F
:103BD0002110491CE26A02EB8202234B43F82210B7
:103BE00000BF00BF2149E06A0968C96A884202D95A
:103BF00001201F4908601A48006808B9012000E048
:103C00000020002893D00CB1FFF784F8194805680C
:103C100075B100BFFFF7A6FE20B10120144900E0F6
:103C200015E008606D1E002DF4D1002011490860D8
:103C30000F48006858B1012600BF0C4800683007E3
:103C40000D490860BFF34F8FBFF36F8F00BFFFF7C1
:103C500035FB3046BDE8F0814C00002020000020FC
:103C60003002002028000020A401002010000020C5
:103C7000340000203000002004ED00E002030405C1
:103C8000060708090A0B0C0D0E0F101001020000A8
:103C900000000000000001020304060708090000FC
:103CA0000000010203040000C83C000800000020DE
:103CB00084000000842300084C3D0008840000209C
:103CC000EC490000942300080000000010000000F0
:103CD0000100000000127A00000000000000000057
:103CE00000000000000000000000000000000000D4
:103CF00000000000000000000000000000000000C4
:103D000000000000000000000000000000000000B3
:103D1000040000000000000000000000000000009F
:103D20000000000000000000000000000000000093
:103D300000000000AAAAAAAA0000000000000000DB
:0C3D400000000000000000000000000077
:0400000508000131BD
:00000001FF
